:020000040800F2
:10000000280F00200101000881380008753600081B
:100010007D380008151400084D3F0008000000005E
:10002000000000000000000000000000753B000818
:100030001914000800000000B1380008D13B000886
:100040001B0100081B0100081B010008293A0008D9
:100050001B0100081B0100081B0100081B01000810
:100060001B0100081B0100081B0100081B01000800
:100070001B0100081B0100081B0100081B010008F0
:100080001B0100081B0100081B0100081B010008E0
:100090001B0100081B0100081B0100081D140008BB
:1000A0001B0100081B0100081B0100081B010008C0
:1000B0001B0100081B0100081B0100081B010008B0
:1000C0001B0100081B0100081B0100081B010008A0
:1000D0001B0100082D3F00083D3F00081B010008E0
:1000E0001B0100081B0100081B010008DFF80CD0F1
:1000F00000F028FF00480047A9410008280F002011
:100100000648804706480047FEE7FEE7FEE7FEE7B1
:10011000FEE7FEE7FEE7FEE7FEE7FEE7553C0008E8
:10012000ED000008D2B201E000F8012B491EFBD21D
:1001300070470022F6E710B513460A4604461946F2
:10014000FFF7F0FF204610BD30B505462A460B46A6
:1001500012F8010B13F8014B08B1A042F8D01CB102
:10016000002802D06D1CF1E7284630BD421C10F873
:10017000011B0029FBD1801A7047034611F8012B9F
:1001800000F8012B002AF9D11846704730B5054612
:100190000020034600E05B1C934205D2EC5CC85C87
:1001A000201A01D1002CF6D130BD00000FB400B5EB
:1001B0008DB010A909900B9000914FF0FF300A907C
:1001C00000200C9005480690054807906A4609A84B
:1001D0000F9900F011FD0DB05DF814FB150C00082F
:1001E000330C00082DE9FF5F1D464FF0FF3BD5E9BA
:1001F000014691465F464FF00008A9697F1C0198AF
:100200008847296A824688470028F6D1BAF1FF3F1D
:100210000CD024F4C064002E19DD600614D5BAF1A8
:100220002B0F09D0BAF12D0F0ED103E0584604B0C0
:10023000BDE8F09F44F48064A9697F1C0198884759
:10024000761E8246002E02DDBAF1300F03D0B9F1DE
:10025000000F26D032E0A969761E44F400747F1C9A
:10026000019888478246002E05DDBAF1780F06D046
:10027000BAF1580F03D0B9F1000F10D01EE0B9F158
:10028000000F02D0B9F1100F18D1A969761E24F41D
:1002900000747F1C019888478246102002E00820E5
:1002A00000E00A20814609E008FB0908A969761EDA
:1002B00044F400747F1C019888478246002E05DDB7
:1002C0004946504600F084FC0028EDDAE9690198BF
:1002D0008847A00502D46FF00100A8E7E00725D108
:1002E000600613D5600502D5C8F1000000E0404665
:1002F00029680A1D2A600968220501D5087015E0E1
:10030000220701D5088011E008600FE02868011D70
:1003100029600068210502D580F8008006E02107E9
:1003200002D5A0F8008001E0C0F8008038467EE7E2
:100330002DE9FF5FD2E901A74FF0000891699946C6
:100340001446DDF838B0464601988847054659EA14
:100350000B0005D009E0A169761C01988847054685
:10036000216A284688470028F5D1681C03D05FEA37
:10037000CA7005D015E04FF0FF3004B0BDE8F09F23
:100380002068011D2160D0F800800AE05FEACA7091
:1003900001D108F8015BA169761C7F1E019888478E
:1003A0000546002F1ADD681C18D0B9F1000F0DD0DA
:1003B000E81705EBD060421120F01F0059F8221019
:1003C0002A1A012090400142E0D107E0BBF1000F62
:1003D000DCD1216A284688470028D7D0E1690198F6
:1003E0008847BBF1000F07D1002E05DD5FEACA7018
:1003F00002D1002188F80010A068B84203DDBBF1EB
:10040000000F03D017B16FF00100B6E73046B4E734
:100410002DE9FF4F087883B09946FF2805D0491C85
:100420002D2804D00024002008E000200BE0012447
:10043000F9E700EB800003EB4000491C0B78FF2B31
:10044000F7D104B1404200230293147819461D46A7
:100450002D2C01D02B2C04D1521C2D2C13D0002478
:100460000294AA461478FF2C0FD00A25A3FB057826
:1004700001FB05814FF0000C03FB0C11521CE3192A
:100480004AEB0101EEE70124EAE7814453EA010067
:1004900002D019F5C87F06DA03980021C0E90011DF
:1004A00007B0BDE8F08F0025AE4E2F46DFF8B882CA
:1004B000184600F00AFDCDE90001B9F1000002DAAA
:1004C000C9F1000400E004460023A74A1AEB030B1D
:1004D00042EB045A12E0E00707D02A46334638467A
:1004E000414600F0DBF9074688462A463346104667
:1004F000194600F0D3F905460E466410002CEAD1E7
:10050000DDE90001B9F1000F5A46534606DA00F062
:1005100037FA3A46434600F033FA05E000F0BEF9F8
:100520003A46434600F0BAF9029A0AB181F0004116
:10053000039AC2E90001B3E72DE9FF4F1F468DB0D2
:10054000D7E901464FF0FF382E2045464FF000090D
:100550000B90B9696D1C0E988847396A82468847A6
:100560000028F6D1BAF1FF3F0AD024F4D064002E5F
:1005700011DDBAF12B0F08D0BAF12D0F0BD102E02B
:10058000404611B08DE744F48064B9696D1C0E9843
:1005900088478246761E6946600501D52D2000E019
:1005A0002B208DF8000001F1010B0DF1200809E06E
:1005B000B9696D1C0E98884782460F9844F4007400
:1005C000761E0560002E02DDBAF1300FF0D00B99D7
:1005D0008A453ED144F0800406E00F99681CA9F1D9
:1005E000010944F400740860B9696D1C761E0E9808
:1005F000884782463028F0D02BE00B998A4505D1F8
:10060000200603D444F08004761E18E0504604F01F
:100610004FF908B30DF11302761EAAF1300044F42D
:100620000074934506D20BF8010B200607D5A9F1FB
:10063000010003E0200602D409F101008146A00573
:1006400002D50F99681C0860B9696D1C0E9888471F
:100650008246002ED1DC53E0002E51DDBAF1650F49
:1006600002D0BAF1450F4BD1A00549D5B9696D1C2F
:1006700024F44074761E0E9888478246002E0CDDC6
:100680002B2804D0BAF12D0F07D144F48074B96936
:100690006D1C0E9888478246761EE00501D52D21F7
:1006A00000E02B2108F8011BCDF82C8021E00DF192
:1006B0002901761E44F4007488450CD2AAF130005A
:1006C00010F0FF0088F8000002D10B99884509D985
:1006D00008F1010806E0E00501D5244801E042F2F6
:1006E0000F708146B9696D1C0E98884782460F9835
:1006F0000560002E04DD504604F0DAF80028D6D15B
:10070000F9690E988847FF208BF8000088F80000F0
:100710000020069007904B466A4608A906A8FFF7F6
:1007200077FEA00502D46FF001002AE714F0240F31
:100730000AD0E00714D1DDE906123868031D3B60DA
:100740000068C0E900120BE0DDE9060100F0DDF908
:100750000146E00704D13868021D3A600068016074
:1007600028460EE7000014400000F03FF1D8FFFFDC
:10077000F0B480EA0102D40F4200B2EB410F02D282
:100780000246084611464A0042D0C30DDDB2C1F30D
:10079000C752AD1A202D35DAC1F3160141F400021B
:1007A00004B15242C5F1200602FA06F12A41104472
:1007B000B3EBD05F23D0C4B1012DA0EBC35009DC53
:1007C000F0BC4FF0004202EAC352DBB200F5000079
:1007D00000F049BA400000F1807000EBC350A0F176
:1007E000807040EAD170490009E0490841EAC071CF
:1007F000A0EBC35000F50000400800EBC350F0BC74
:1008000000F028BA6142012202EB4101001BF6E729
:10081000F0BC704781F00041AAE780F00040A7E7F4
:1008200030B480EA010202F0004530F0004221F0CD
:10083000004013D090B1C30DD40DC2F31601C0F324
:100840001600E41A41F4000140F400027D349142A4
:1008500001D3641C00E04900002C02DA30BC002007
:1008600070474FF400000023914201D3891A0343DB
:1008700040084FEA4101F7D151B1914202D14FF006
:10088000004105E002D24FF0010101E06FF00101EB
:1008900003EBC450284430BC00F0DCB92DE9FE4F16
:1008A00081EA030404F0004421F0004100944FF079
:1008B000000B23F0004350EA01045ED052EA030427
:1008C0005BD0C3F30A54C1F30A552C44A4F2F334A9
:1008D0000194A0FB0254C1F3130141F48011C3F34E
:1008E000130343F4801301FB024400FB034E840A0C
:1008F000970A44EA815447EA8357A4FB07680295A4
:100900008D0A05FB07854FEA932C04FB0C54270541
:10091000029D4FEA065847EA1637B5EB08056EEB1D
:10092000070C870E920E47EA811742EA8312A7FB53
:100930000201B6EB0B0164EB00042B0D43EA0C3310
:100940005E1844EB1C50DA465146E7FB0201C5F342
:1009500013044FEA0B3343EA14534FEA0432019C69
:1009600043EA0603A4F10C040294009CCDE900B410
:1009700000F0B6F903B0BDE8F08F00200146F9E7BA
:100980002DE9F04D81EA030404F0004B21F000450D
:1009900014464FF0000A23F0004150EA050220D02F
:1009A00054EA01021DD0C5F30A570246C5F31303EA
:1009B000C1F31300C1F30A5640F4801543F48013C9
:1009C000A7EB0608101BD64608F2FD3873EB0500AE
:1009D00002D308F1010801E092185B41B8F1000F61
:1009E00003DA00200146BDE8F08D00204FF48011AD
:1009F000064684460EE0171B73EB050705D3121B52
:100A000063EB050306434CEA010C49084FEA30004A
:100A100092185B4150EA0107EDD152EA030012D06F
:100A200082EA040083EA0501084305D0101BAB41AC
:100A300006D20122002306E000224FF0004302E02C
:100A40006FF0010253101AEB06004CEB085110EB4B
:100A50000A0041EB0B01BDE8F04D00F032B900286F
:100A600001DBC0F10040002901DBC1F100418142FE
:100A700001D80120704700207047002801DBC0F139
:100A80000040002901DBC1F10041814201D1012078
:100A9000704700207047C10F80EAE0700844CA0721
:100AA0009623002100F0DFB896230022114600F0C3
:100AB000DAB800F0004220F00040C10DC0F316008B
:100AC00040F400007F2901DA00207047962903DCFA
:100AD000C1F19601C84001E096398840002AF4D05F
:100AE0004042704700F0004230F000400AD0C10D93
:100AF00001F56071C0F3160042EA0151C2084007D7
:100B00001143704700200146704701F0004330B4A4
:100B100021F0004150EA010206D00A0DA2F56072F0
:100B2000C1F31301002A02DC30BC00207047440FDF
:100B300044EAC104C100E01830BC00EBC25000F030
:100B400089B830B50B46014600202022012409E077
:100B500021FA02F59D4205D303FA02F5491B04FA76
:100B600002F52844151EA2F10102F1DC30BD2DE989
:100B7000F05F0546002092469B4688460646814621
:100B800040241BE0284641464746224600F0FBF938
:100B900053465A46C01A914110D311461846224670
:100BA00000F0E2F92D1A67EB01084F4622460120BA
:100BB000002100F0D9F917EB00094E41201EA4F1E5
:100BC0000104DFDC484631462A464346BDE8F09F33
:100BD0003A2800D2303820F02002412A01D3A2F175
:100BE0003700884201D34FF0FF307047026811444C
:100BF0001378016018467047D16004495161044977
:100C0000116200211161114600F0E4B9ED0B0008FA
:100C1000CB0F0008426842B1016811F8013B23B1D3
:100C2000521EC0E90012184670470121C160881E9B
:100C3000704742685AB1C368016843B983688B4200
:100C400005D0491E521CC0E90012002070474FF029
:100C5000FF3070470029A8BF7047401C490008BFFB
:100C600020F00100704710B4B0FA80FC00FA0CF0DC
:100C700050EA010404BF10BC704749B1CCF1200414
:100C800021FA04F411FA0CF118BF012121430843A1
:100C9000A3EB0C01CB1D4FEA00614FEA102042BFCD
:100CA000002010BC704700EBC35010440029A4BFC3
:100CB00010BC7047401C490008BF20F0010010BC68
:100CC000704710B5141E73F1000408DA401C41F19E
:100CD000000192185B411A4301D120F0010010BDC0
:100CE0002DE9F04D92469B4611B1B1FA81F202E036
:100CF000B0FA80F22032904600F036F904460F46F2
:100D000040EA0A0041EA0B0153465A46084313D011
:100D1000114653EA010019D0C8F14002504600F0D4
:100D200032F905460E4650465946424600F01CF937
:100D3000084305D0012004E020463946BDE8F08D87
:100D40000020054346EAE0762C4337430A986305C2
:100D5000E40AA0EB08000022FD0A44EA47540A30E6
:100D600002D500200146E9E7010510196941DDE9D6
:100D7000084500196941BDE8F04DA2E72DE9FE4F95
:100D8000804681EA0300C00F0C46009021F000412C
:100D900023F00045B8EB0200A94105D240462146A8
:100DA00090461C460B46024623F00040104347D0B5
:100DB000270DC7F30A00C3F30A510290401A0190AD
:100DC00040286BDAC3F3130040F4801B009892466E
:100DD00020B10023D2EB030A63EB0B0B01985946B9
:100DE000C0F14002504600F0BFF806460D4650469E
:100DF0005946019A00F0D7F810EB08006141002431
:100E000087EA115284EAE7731A4340D0009A62B32A
:100E1000019A012A4FEA075215DC001B61EB02011F
:100E20004FF0004202EA0752CDE90042001C41F5B2
:100E3000801132462B46FFF753FF03B0BDE8F08F19
:100E400040462146F9E7001B61EB0201001C41F519
:100E5000801300185B412018A2F5001747EB03012F
:100E600040EAD570B6196D4111E06D084FEA3606BB
:100E700045EAC0754FEA0752001B61EB0201001CF6
:100E800041F5801149084FEA3000001951413246BE
:100E90002B4603B0BDE8F04FFFF713BF00980122C7
:100EA00040000023D0EB020263EBE0730098214680
:100EB0004FEAE074B8EB000061EB0401E9E783F06E
:100EC00000435BE781F0004158E70EB540F2334242
:100ED00002920022CDE900221346FFF701FF03B082
:100EE00000BDC1F30A52C1F3130140F2FF3341F4D4
:100EF00080119A4202DA00200146704740F23343E3
:100F00009A42A2F2334202DC524200F03CB800F0B6
:100F10002BB8000030B5041E71F1000404DB4FF063
:100F20000044404264EB0101141E73F1000405DB30
:100F30001C464FF00043524263EB0403994208BF42
:100F4000904230BD064C074D06E0E06840F00103DA
:100F500094E8070098471034AC42F6D3FFF7CAF87C
:100F600098500008B8500008202A04DB203A00FA04
:100F700002F1002070479140C2F1200320FA03F3F0
:100F8000194390407047202A04DB203A21FA02F0EE
:100F90000021704721FA02F3D040C2F120029140B3
:100FA000084319467047202A06DBCB17203A41FA3E
:100FB00002F043EAE07306E041FA02F3D040C2F1E6
:100FC00020029140084319467047C0B24FF4F051D7
:100FD00000F096B92DE9F34F8BB04FF0000801F106
:100FE0000C000C464FF0010B46460DF1080A01902B
:100FF0006269012101989047051E2DD0252D2CD026
:10100000216A8847C0B16269012101989047216A2D
:1010100088470028F7D1411E62690198904700E097
:10102000761CA1690B988847216A88470028F7D168
:10103000E1690B988847DBE7A1690B988847074669
:10104000A84201D1761CD3E7E1690B9888477F1C41
:1010500002D1B8F1000F6FD046E1002762693D462A
:101060003946019890472A2804D1626901210198E4
:1010700090470125DFF88492626901210198904729
:10108000A0F130010A290AD24F45E5DC07EB8701C0
:1010900000EB4107303FDFD445F01005ECE7E906EF
:1010A00001D46FF000476C280AD04C2814D068286F
:1010B00015D06A280DD074281CD07A281AD01DE0CB
:1010C00062690121019890476C2802D045F004051F
:1010D00014E045F002050DE045F020050AE06269E4
:1010E000012101989047682802D045F0080505E0E5
:1010F00045F400656269012101989047C4E90157F0
:1011000065283DD019DC58287AD00CDC452837D02A
:1011100004DC252826D0412831D131E046282FD0C3
:1011200047282CD12CE05B2877D0612828D0632871
:101130007CD0642823D15AE0D0E06F2848D008DC66
:1011400066281DD067281BD0692821D06E2816D1AB
:1011500027E0702845D0732868D0752847D07828B4
:101160000DD14DE0A1690B988847054625283FF42D
:1011700069AFE1690B9888476D1C3FF46AAFB3E033
:1011800023466A466FF001000B99FFF7D5F99EE000
:1011900045F040006060A80723464FF0000236D4B7
:1011A0003EE0E8077FF447AF2068011D216000683A
:1011B000290501D506701BE7290701D5068017E729
:1011C000A90703D5F117C0E9006111E706600FE731
:1011D00045F040006060A80723464FF0080216D48F
:1011E0001EE040F60E0125EA0100606016E045F0C1
:1011F00040006060A80723464FF00A0207D40FE0C2
:1012000045F040006060A80708D5234610226FF023
:1012100001000B99AFF3008059E007E0234610224C
:101220006FF001000B99FEF7DDFF50E04FF0000971
:101230004F464B46632802D05B2806D040E0E806C4
:1012400001D40120A06001273AE0626901210198E0
:1012500090475E2805D14FF001096269494601981F
:101260009047216939B900210A46534643F82120A5
:10127000491C0829FADBB0B3216969B9C11700EB31
:10128000D16253110AEB830122F01F02821A01205E
:101290000B68904003430B606269012101989047FD
:1012A0005D28E8D1B9F1000F09D00020514651F86E
:1012B0002020D24341F82020401C0828F7DB02AB55
:1012C000224600976FF001000B99FFF731F80028D4
:1012D0000CDA401C08D1BBF1000F05D04FF0FF30F5
:1012E0000DB0BDE8F08FFFE74046F9E7E90701D10F
:1012F00008F1010806444FF0000B79E6CCCCCC0C89
:101300007F2801D9002208E0064A02EB5002C007FC
:10131000127800D1120902F00F020120904008401B
:1013200070470000F84F0008B0B5044600688168B7
:10133000C90709D0816821F00101816001F058F8E6
:1013400021688968C90701D10020B0BD054603E0C6
:1013500020688068C007F7D001F04AF8401B0328D6
:10136000F6D320688068C007F2D0A06A40F0100071
:10137000A062E06A40F00100E0620120B0BD000020
:10138000B0B582B004460020019021688A68D20777
:101390003DD1886840F00100886040F20000C2F250
:1013A000000000684DF68361C4F21B31A0FB01010F
:1013B000880C00BF0190019810B101980138F9E73D
:1013C00001F016F821688968C9071CD1054603E0B9
:1013D00020688068C00719D101F00AF8401B032873
:1013E000F6D320688068C007F2D1A06A40F01000F0
:1013F000A062E06A40F00100E062002084F824006E
:10140000012002B0B0BD002002B0B0BD002002B08B
:10141000B0BD0000FEE700007047000080B54FF44B
:10142000007000F0D3FE80BDEFF3108072B600BFF5
:10143000FEE7000080B540F6601040F6AE21C2F233
:101440000000C2F20001012202F092F880BD00000B
:1014500010B540F6AE20C2F20000007840F2FC0465
:101460000A28C2F200040BD021784AB2002A07D41D
:101470000132227040F27C02C2F20002505415E0A8
:1014800040F27C00C2F2000000F02EF928B140F2D8
:101490007C00C2F2000000F03DF80020207040F215
:1014A0007C00C2F200008021FEF743FE40F660108F
:1014B00040F6AE21C2F20000C2F20001012202F0A9
:1014C00057F810BD70B50C460021C4F2C82105467E
:1014D000FFF7A6F9FFF7EDFA064664207043FFF721
:1014E000DAFA01462846FFF795F90021C4F2702187
:1014F000FFF796F905463046FFF7CDFA0146284634
:10150000FFF736F944F00401572908BF80F0004086
:1015100070BD0000F0B589B054A106220446FEF764
:1015200035FE88B353A120460622FEF72FFE002881
:1015300064D052A120460622FEF728FE00287AD069
:1015400050A120460622FEF721FE002854D140F289
:101550002400C2F2000000F1500100F14D0200F140
:10156000300300F1540700F14C0600F14805CDE9C5
:101570000232049100F1400200F1440343A12046ED
:10158000CDE9005605976CE040F22405C2F2000553
:1015900005F1240105F1200205F11C0305F11900F4
:1015A000CDE9042145F2700105F12C0C05F1280E5E
:1015B00005F10C0605F11807CDE9020305F1140247
:1015C00005F11003C0F600012046CDE90076CDF804
:1015D00018E0CDF81CC0FEF7E9FD01280CDB297EE0
:1015E0002869FFF76FFFEA68697E68601046FFF7B9
:1015F00069FF286009B0F0BD09B0F0BD40F22400D9
:10160000C2F2000000F1380700F1340100F13002AD
:1016100000F1190300F10C0600F11805CDE90056A0
:10162000CDE90232049100F1140200F1100326A169
:101630002046059715E040F22400C2F2000000F1B8
:10164000140100F1190200F10C0300F13C07CDE98F
:101650000032029100F1100200F1180313A120469C
:101660000397FEF7A3FD09B0F0BD00BF2447504724
:1016700047410000244750524D4300002447504743
:101680004C4C000024475056544700002447505605
:1016900054472C25662C25632C25662C25632C2588
:1016A000662C25632C25662C2563000024475047B3
:1016B0004C4C2C25662C25632C25662C25632C256B
:1016C000662C256300000000244750524D432C2512
:1016D000662C25662C25632C25662C25632C256617
:1016E0002C25662C25640000B0B582B00178242931
:1016F00013D1437800229BB1022100BFA1F1010E5A
:10170000BEF14A0F0ED82A2B0CD05A40435C01314F
:10171000002BF3D1A1F1010E04E04FF0000C1BE00F
:101720004FF0010EBEF14A0F4FF0000C14D82A2BD7
:1017300012D170444478857809A10DF1050002F0BA
:10174000D1FF9DF805009DF80610604069400843F0
:10175000B0FA80F04FEA501C604602B0B0BD00BF46
:10176000253032580000000010B545F2650106A092
:10177000C0F6000102F0F0FD0446002818BF012465
:1017800002F0DAFD204610BD41542B4353434C4B2D
:101790003D320D0A0000000080B545F2650124A02D
:1017A000C0F6000102F0D8FD01281CD0012820D08D
:1017B000012827D001282ED0012806D145F2650145
:1017C0002AA0C0F6000102F0C7FD02F0B5FD40F608
:1017D000181040F61D31C2F20000C2F200010122D1
:1017E00001F0C6FE80BD14A016A102F0B5FD0128CF
:1017F000DED145F2650115A0C0F6000102F0ACFD96
:101800000128D7D145F2650113A0C0F6000102F00E
:10181000A3FD0128D0D145F2500045F26501C0F684
:101820000000C0F6000102F097FD0128CDD1C5E708
:10183000415445300D0A000041542B4353510D0AC9
:10184000000000002B4353510000000041542B4383
:101850004D47463D310D0A0041542B434E4D493D05
:10186000322C312C302C302C300D0A0041542657AC
:101870000D0A000010B545F2500045F26501C0F6B2
:101880000000C0F6000102F067FD0446002818BF02
:10189000012402F051FD204610BD0000F0B5B1B0AA
:1018A00040F6B820C2F20000847B02F045FD00BF84
:1018B00000F09EF80028FBD0A4F13000C4B20DF176
:1018C00006051FA12846224602F00CFF45F26A06D3
:1018D000C0F600062846314602F03EFD40F6B8202C
:1018E000C2F200003146FEF72FFC08B32CAE0DF11A
:1018F00092070DF12E0516A132463B460095FEF7E4
:1019000055FC40F60C20C2F200002946FEF735FCDB
:1019100040F69020C2F200003146FEF72EFC40F661
:101920007020C2F200003946FEF727FC02F004FDE9
:10193000092C03D1FFF79EFF02F0FEFC31B0F0BD91
:1019400041542B434D47523D25640D0A00000000D1
:10195000252A5B5E2C5D2C22255B5E225D222C25D8
:101960002A5B5E2C5D2C22255B5E225D220D0A2502
:101970005B5E0D5D00000000B0B59AB001AD0A4697
:10198000044612A1284602F0ADFE14A1284602F03A
:10199000E3FCA0B101AD12A1284622461A2302F0B1
:1019A000A1FE284602F060FE0FA1284602F0D4FCFA
:1019B0000446002818BF012402F0BEFC02E002F039
:1019C000BBFC002420461AB0B0BD00BF41542B43DD
:1019D0004D47533D222573220D0A00000D0A3E009B
:1019E00025732563000000002B434D475300000082
:1019F00010B50AA002F038FEC82000F02FFB45F217
:101A0000650108A0C0F6000102F0A6FC044600280B
:101A100018BF012402F090FC204610BD41540D0A6D
:101A20000000000041542B4353434C4B3D300D0A02
:101A300000000000B0B581B00022009290F8242090
:101A4000012A01D1022179E04A680123062A80F89F
:101A5000243005D803686FF0040C03F1340E0AE05B
:101A600003680C2A87BF03F12C0E6FF0400C03F1C2
:101A7000300E6FF0220C02EB8202DEF8005062445E
:101A80001F230C68934025EA030304FA02F21A4369
:101A9000CEF80020D1F800E002680EEB4E051024CD
:101AA000BEF1090F88BF1E3D88BF0C2452F804C048
:101AB00007238968AB402CEA0303A940194311515D
:101AC0002EF001014FF0000C10294FF0000133D12E
:101AD000016842F20042C4F20102914205D0816ADB
:101AE00041F020018162012126E09268120222D495
:101AF0008A68BEF1100F42F400028A601BD140F2E6
:101B00000001C2F2000109684DF68362C4F21B3283
:101B1000A1FB0212910C01EB810149000091009997
:101B200049B100BF009901390091009900294FF097
:101B30000001F7D100E0002180F824C0084601B080
:101B4000B0BD00000068C06C70470000002804BFF2
:101B500001207047F0B581B00746044657F8280FBA
:101B600030B90020E06284F82400204600F07AF8C2
:101B70002046FFF7D9FBA26AA16A002808BF12F02D
:101B8000100205D041F010010120396001B0F0BD14
:101B900041F2021291430231A162E169D4E90132BA
:101BA00041EA0305511EB1FA81F149091346B2F524
:101BB000807F18BF0B02267D217B012E45EA410C58
:101BC00011D141B1A16A41F02001A162E16A41F065
:101BD0000101E16207E0A1694EF60006CFF6FF764B
:101BE00006EB41310B432168B2F5807F4E6826F445
:101BF000694643EA06034B608B684FF2FD76CFF6E9
:101C0000E17603EA060343EA0C038B6001D0012A64
:101C100006D122690023CFF6F07303EB025200E0F5
:101C20000022CB6A23F470031A43CA62896840F623
:101C3000FE62CFF61F721140614506D10021E162BC
:101C4000A16A012262F301019FE7A06A40F010003F
:101C500020F00200A06254F82C0F40F00101012096
:101C6000274692E780B586B0014640F60000C4F2F0
:101C70000100096800F5E05291424FF00001CDE902
:101C80000411CDE9021101D006B080BD41F2180166
:101C9000C4F202010A6842F400720A600A6802F49F
:101CA00000720192019A0A6842F004020A6009680F
:101CB00001F0040101910199022102910321039194
:101CC00002A900F091FA06B080BD00002DE9F041B4
:101CD00082B000260D460446019600F089FB21687B
:101CE0008A68D2053CD480464868C00503D4C86AD7
:101CF00010F4700F3ED040F20000C2F200000668FF
:101D0000022000F01BFC216844F624130A69B6FB8C
:101D1000F0F0C2F292431A4206D1CA6844F6241384
:101D2000C0F292031A423ED00A6942F29243C1F2D3
:101D300049231A4206D1CA6842F29243C0F24903CB
:101D40001A4242D00A6949F24923C0F224031A42D6
:101D50004FF0FC023AD1C968194208BF542235E05D
:101D6000A06A40F02000A06284F82460012002B044
:101D7000BDE8F08120680068800743D46E1C07E04E
:101D80002068006880075CD520680068800739D427
:101D9000002EF9D0002DF3D000F02AFBA0EB0800B4
:101DA000A842EDD8F0E70A6942F29243C1F2492312
:101DB0001A424FF0290209D1C96842F29243C0F297
:101DC0004903194208BF142200E05422019902FB82
:101DD00000F7B94216D26E1C09E000BF0198B84264
:101DE0002FD30198013001900198B8420AD2002EF9
:101DF000F7D0002DF2D000F0FBFAA0EB0800A842CB
:101E0000ECD8EEE720686FF012010160A16A41F49E
:101E10000071A162806800F46020B0F5602F0CD1E1
:101E2000207B50B9A06A20F48070A062A06AC00430
:101E300003D4A06A40F00100A062002002B0BDE817
:101E4000F081A06A40F00400A062002084F8240021
:101E5000032002B0BDE8F08110B5044690F82400DC
:101E6000012804BF022010BD012084F82400204670
:101E7000FFF786FA18B1002184F8241010BD42F251
:101E8000044C2168A26AC4F2010C40F201339A4367
:101E90000CF57F7E02F580727145A26207D0A26ABE
:101EA00022F48012A2624A68520519D41DE0DCF8BF
:101EB000002012F4702FF2D0A26A42F60003C4F29E
:101EC000010342F480129942A26205D042F200421C
:101ED000C4F20102914208D1DCF80020520504D579
:101EE000A26A012363F30D32A262A36A0022DB041B
:101EF0004FF0000344BFE36A23F00603E36284F873
:101F000024206FF002020A608A6802F46022B2F5AF
:101F1000602F0BD1714504D08A6842F4A0028A6018
:101F200010BDDCF8002012F4702FF5D08A6842F45E
:101F300080128A6010BD000010B5044690F824009D
:101F4000012804BF022010BD012084F8240020468F
:101F5000FFF7EAF928B9A16A41F201129143013170
:101F6000A162002184F8241010BD0000014690F801
:101F70002100022813D10868D1E90FC3026822F0BA
:101F80000E020260026822F001020260012000FAE3
:101F900003F2CCF8042081F82100002002E00420A4
:101FA00088630120002281F82020704780B590F8D6
:101FB0002110022923D10268116821F00E0111605D
:101FC0002F211368C4F202018A4240F20401C4F2D4
:101FD000020123F00103136016DD3023C4F2020373
:101FE0009A421DD04423C4F202039A421BD05823C4
:101FF000C4F202039A421BD14FF4803320E0042143
:1020000081630121084680BD0823C4F202039A427D
:102010000CD01C23C4F202039A4209D110230FE012
:102020004FF480730CE04FF4805309E0012307E084
:1020300001F1680C4FF08073624508BF4FF48013C4
:102040000B60012180F82110426B002180F82010E4
:102050000AB190470021084680BD0000B0B5044693
:1020600000F0C6F9054640F21400C2F20000007804
:10207000611C18BF044400BF00F0BAF9401BA04225
:10208000FAD3B0BD2DE9F04F82B0002900F0858071
:1020900041F20042C4F2010240F2004390424FF08C
:1020A0000402C4F2010308BF03220092A3F57E726A
:1020B0006FF01F05019201220F261AE00746BAF5BC
:1020C000807F24BFAC4604373C6806FA0CF324EA50
:1020D0000303042404FA0CF423433B60C36823EA9B
:1020E0000A03C36031FA02F302F1010205F10405AB
:1020F00053D0541E012303FA04F717EA010AF1D062
:10210000019B4FEA940953F829E040F60003C4F21A
:102110000103984213D040F60043C4F201039842F1
:102120000AD041F20003C4F20103DDF800B0984286
:1021300008BF4FF0020B04E04FF0010B01E04FF03D
:10214000000B05F1200C0CF00C0406FA04F80EEA62
:1021500008070BFA04F4A742B0D140F20044C4F2DD
:102160000104276840F20C4327EA0A0727606768E2
:10217000C4F2010327EA0A0767601F6827EA0A0713
:102180001F60A76827EA0A07A760019B53F8297018
:1021900027EA080743F8297090E702B0BDE8F08FFE
:1021A000B0F5007F18BF704780B500F021F940F608
:1021B0000021C2F20001086040F6A810C2F200003F
:1021C00001210170BDE880407047000080B540F2F9
:1021D0001441C4F201010A68024208BF80BD0860D0
:1021E000FFF7DEFF80BD00002DE9F04F82B00E68E2
:1021F000002E00F0F38041F20042C4F201020423F9
:1022000040F2004E904208BF03234FF6FF7CC4F219
:10221000010E009300240123C1F2100C4FF0000ABC
:102220004FF0000941E0012504F00C030F279F4007
:102230002BEA070705FA03F33B4342F826304E68C2
:1022400040F20C45F202DEF8082054BF22EA0802F0
:1022500042EA0802C4F20105CEF808202A68B30257
:1022600054BF22EA080242EA08022A60B303DEF8F9
:10227000042054BF22EA080242EA0802F303CEF81F
:102280000420DEF800204FF0010354BF22EA0802C8
:1022900042EA0802CEF800200E680AF1010A36FA76
:1022A0000AF204F1040400F0998003FA0AFB16EA2A
:1022B0000B08F1D04A68624510DC122A50D8DFE8DA
:1022C00002F0330A41454F4F4F4F4F4F4F4F4F4F43
:1022D0004F4F4F484C00D1F80C9041E04FF6FF753E
:1022E000C1F22105AA420FDC0025C1F21105AA4264
:1022F0001AD00025C1F21205AA4215D00025C1F25C
:102300002105AA4210D02BE00025C1F22205AA42E5
:102310000AD00025C1F23105AA4205D00025C1F23C
:102320003205AA421CD100BF8A6842B1012A14BFFB
:10233000C0F814B0C0F810B04FF0080910E04FF02A
:1023400004090DE0CA6802F1080909E04FF000092C
:1023500006E0CA6802F1040902E0CA6802F10C0949
:1023600022460546B8F5807F24BF203A04352E6802
:102370000F279740BE4309FA02F232432A60CA7916
:10238000D2067FF589AF41F21803C4F202031A683E
:102390004FEA9A0642F001021A601A6840F60003FA
:1023A00002F001020192019AAEF57E7252F826B057
:1023B000C4F2010398420FD040F60043C4F2010377
:1023C00098423FF430AF41F20003C4F20103009D94
:1023D000984208BF022527E7002525E702B0BDE89F
:1023E000F08F0000002A08BF090401617047000057
:1023F00040F62030C2F200000068704740F214003E
:1024000040F62031C2F20000C2F2000100780A68F2
:10241000104408607047000080B542F20000C4F22A
:102420000200016841F010010160032000F06AF829
:10243000002000F005F800F02BF8002080BD00001F
:10244000B0B540F21402C2F2000240F2000112786C
:10245000C2F200014FF47A730968B3FBF2F204464A
:10246000B1FBF2F1084600F07BFE0F2C4FF00105A6
:102470000CD858B94FF0FF3021460022002500F05B
:1024800031F840F21800C2F2000004602846B0BDE6
:1024900082B041F21800C4F202000168022241F049
:1024A00001010160016801F0010101910199416898
:1024B00041F080514160406800F0805000900098E9
:1024C0000420C4F20100016862F31A61016002B0E5
:1024D0007047000080B501F03BFD80BD80B501F084
:1024E0004BFD80BD70B514460D46064601F054FD07
:1024F0002946224601F0C6F90146304601F054FD56
:1025000070BD000080B501F061FD80BD01F06EFD81
:102510002020C4F20E200121016070474EF61050B9
:10252000CEF200000268012922F0040202600FBF0F
:1025300030BF40BF20BF20BF7047000080B50128DA
:1025400018D0022841D010283DD141F20401C4F234
:1025500002010A6851F8040CC00134D5C2F383406B
:102560002EA3185CD2033FD440F60012C0F23D0205
:10257000504345E041F20400C4F20200C16940F258
:1025800002320A40B2F5817F04BF4FF4004080BDA3
:1025900001F44071B1F5407F0DD0B1F5007F12D14B
:1025A000026A920744BF49F6404080BDB1F5407FC2
:1025B0001CBF002080BD50F8040C4FF22441800362
:1025C00001EAE07080BD002080BD00F087F941F293
:1025D0000401C4F2020109680222C1F3813102EB55
:1025E0004101B0FBF1F080BD0A6810A3C2F3404284
:1025F0009A5C41F20023C0F27A03B3FBF2F250433B
:102600000968490248BF80BD4AF6AB214000CAF6BE
:10261000AA21A0FB0101480880BD00BF02030405F8
:10262000060708090A0B0C0D0E0F1010010200001E
:102630002DE9F04182B00446007841F21C06C00743
:10264000C4F202064AD0306810F0805808D13068D1
:1026500040F080503060306800F080500190019868
:1026600047F20007C4F200073868C00512D4386882
:1026700040F480703860FFF7BBFE05463868C0053F
:1026800008D4FFF7B5FE401B6428F7D9032002B039
:10269000BDE8F081706810F4407012D0616801F4F8
:1026A000407188420DD0706840F24042C4F242222C
:1026B000012320F4407113600023C0071360716090
:1026C00029D17068616820F440700843B8F1000FA8
:1026D000706003D1306820F080503060206881073E
:1026E00007D556F8181CA26821F44041114346F85A
:1026F000181CC00603D4002002B0BDE8F08156F8D3
:10270000180CE16820F48000084346F8180C0020FB
:1027100002B0BDE8F081FFF76BFE054641F2883755
:1027200070688007CDD4FFF763FE401BB8424FF0BE
:102730000300F5D9ECE700002DE9F04381B0002853
:1027400000F0898042F20008C4F202080446D8F87A
:1027500000000D4600F0070088420CD2D8F80000B7
:1027600020F007002843C8F80000D8F8000000F067
:102770000700A8426FD1206841F204098107C4F222
:10278000020917D5410705D5D9F8001041F4E061D9
:10279000C9F80010010705D5D9F8001041F46051BF
:1027A000C9F80010D9F80010A26821F0F001114317
:1027B000C9F80010C00745D1D8F8000000F00700A4
:1027C000A8420CD9D8F8000020F007002843C8F828
:1027D0000000D8F8000000F00700A8423BD12068B4
:1027E000410707D5D9F80010E26821F4E0611143F0
:1027F000C9F80010000708D5D9F80000216920F4B5
:10280000605040EAC100C9F8000000F079F8D9F83A
:10281000001045F23802C1F30311C0F60002515C0A
:1028200040F2000220FA01F140F21800C2F200006A
:102830000068C2F200021160FFF702FE002001B042
:10284000BDE8F0836068022809D0012829D159F831
:10285000041C890307D4012001B0BDE8F08359F8B6
:10286000041C8901F7D5D9F8001021F003010843B1
:10287000C9F80000FFF7BCFD064641F2883700BFEB
:10288000D9F80000616800F00C00B0EB810F93D024
:10289000FFF7AEFD801BB842F2D9032001B0BDE8BE
:1028A000F08359F8041C8907D5D5DCE740F2000015
:1028B000C2F200000068704780B5FFF7F7FF41F2F1
:1028C0000401C4F20201096845F24802C1F3022181
:1028D000C0F60002515CC84080BD000080B5FFF723
:1028E000E5FF41F20401C4F20201096845F2480221
:1028F000C1F3C221C0F60002515CC84080BD000097
:1029000041F2040CC4F2020CDCF8003003F00C00BD
:10291000082841F20020C0F27A0018BF7047C3F3C4
:1029200083420AA18A5CD90305D440F60010C0F2A4
:102930003D0050437047DCF8001008A3C1F340414C
:10294000595C5043B0FBF1F0704700BF020304052F
:10295000060708090A0B0C0D0E0F101001020000EB
:102960002DE9F04182B0002800F0C48004460078D0
:1029700041F20006C007C4F2020643D0706800F0BE
:102980000C00042817D0706800F00C00082802D151
:102990007068C0030FD465682DB1B5F5A02F10D0B5
:1029A000B5F5803F11D0306820F480303060306859
:1029B00020F480200CE03068800323D5606808BBD9
:1029C00098E0306840F480203060306840F4803017
:1029D0003060FFF70DFD002D054610D030688003F4
:1029E00010D4FFF705FD401B6428F7D904E100BFB0
:1029F000FFF7FEFC401B64284FF0030077D83068D7
:102A00008003F5D42078800718D5706810F00C0F7B
:102A100007D0706800F00C00082826D17068C00349
:102A200023D43068800702D52069012862D130683C
:102A3000616920F0F80040EAC100306020780007AA
:102A40003DD5A06938B30020C4F242200121C0F86E
:102A50008014FFF7CDFC0546706A80072DD4FFF780
:102A6000C7FC401B0228F7D9C6E02069002840F2C5
:102A70000000C4F2422000F0968001210160FFF7BF
:102A8000B7FC054630688007D1D4FFF7B1FC401B86
:102A90000228F7D9B0E00020C4F242200021C0F89B
:102AA0008014FFF7A5FC0546706A800707D5FFF77D
:102AB0009FFC401B0228F7D99EE000F0FBFE207827
:102AC00040071BD4E5698DB1706800F00C00082840
:102AD00047D1012D0ED07068216A00F480328A42FD
:102AE00008D1616A00F47010884203D1002002B05E
:102AF000BDE8F081012002B0BDE8F081F06910F07E
:102B0000805808D1F06940F08050F061F06900F021
:102B100080500190019847F20007C4F2000738681E
:102B2000C00510D4386840F480703860FFF760FC4E
:102B3000054600BF3868C00505D4FFF759FC401BA7
:102B40006428F7D958E0E5681DB1052D3CD0012D6A
:102B50003ED0306A20F001003062306A20F004007C
:102B600039E00027C4F2422700203866FFF740FC16
:102B7000022D05460CD100BF3068800154D5FFF707
:102B800037FC401B02284FF00300F5D9AFE700BF28
:102B900030688001AAD5FFF72BFC401B02284FF0BC
:102BA0000300F5D9A3E700210160FFF721FC0546EA
:102BB000306880077FF542AFFFF71AFC401B022800
:102BC0004FF00300F4D992E7306A40F0040030621D
:102BD000306A40F001003062FFF70AFC002D054624
:102BE00041F2883714D000BF306A800713D4FFF752
:102BF000FFFB401BB842F7D9032002B0BDE8F081CB
:102C0000FFF7F6FB401BB8424FF003003FF66FAFF3
:102C1000306A8007F4D4B8F1000F7FF453AFF06945
:102C200020F08050F0614DE7206AB0F5803F05D17B
:102C30007168A26821F40031114371607168626AA1
:102C400021F4741110430843706001203866FFF7C7
:102C5000CFFB0446306880013FF548AFFFF7C8FB63
:102C6000001B02284FF00300F4D940E77047000032
:102C70007047000010B5044600680168C9071CBF12
:102C800041685FEAC17100D110BD4068400704D4BB
:102C90002046FFF7EBFF012007E02046FFF7E8FFA3
:102CA00020686FF00401416004206074206841686E
:102CB00021F00101416010BD2DE9F04381B00646CD
:102CC00000284FF0010074D00C46002971D0306804
:102CD0004068400756D43046914600F0D7FE07467C
:102CE0004BF2C530C9F2A210A7FB0001C80A4FF48D
:102CF000616100FB117148F68902C8F68802A1FBE8
:102D000002235A0962701201A2EB5312A1EB820155
:102D100045F28012C0F201029742A17036D344F20C
:102D20000751CCF22E21A7FB01124AF6AB21CAF6BD
:102D3000AA21A0FB0113190901EB4101A0EBC1007D
:102D4000207030464FEA124800F098FEC51B98BF2D
:102D50004FF0FF35411C4AF68061CFF6FE7108FB4B
:102D6000017708BF05463046394600F0EDFE48B908
:102D7000681C07BF30464FF0FF31E919304600F0BC
:102D8000CDFEC8B1012001B0BDE8F0832070B9F1DB
:102D9000000F18D0207800F0ADFD61782070084653
:102DA00000F0A8FDA1786070084600F0A3FDA070B7
:102DB000002001B0BDE8F0833046414600F0B2FD8E
:102DC000B9F1000FE6D1002001B0BDE8F0830000AA
:102DD000B0B5E8B30446407C20B9002020742046FA
:102DE00000F042F802206074204600F093F950BBD6
:102DF000204600F0E9FD30BB2268A068536846F623
:102E00002C41C4F2000123F00703536018B14A6853
:102E100022F001024A600A6822F4607210430860DE
:102E20006068411C05D101200125FFF787FBC8B16F
:102E300001382168C0F3034280B28A60C86020462E
:102E400000F0DAFD30B10125042060742846B0BDE1
:102E50000120B0BD40F201100025A4F80D000120B2
:102E6000E573F2E70420F0E780B582B0006842F62F
:102E70000001C4F20001884201D002B080BDFFF71A
:102E800047FB41F21C00C4F202000168002241F03D
:102E9000006101600068012100F00060019001986C
:102EA00040F23C40C4F24220016003200021FFF7C1
:102EB00019FB0320FFF712FB02B080BDF0B581B013
:102EC000044600208DF80200ADF800004FF001002C
:102ED0009CB10D4689B1207C01284FF002000CD036
:102EE0000121164621746074694620460022FFF7CE
:102EF000E3FE00284FF0010001D001B0F0BD9DF8C5
:102F000000009DF801104FF461679DF8022078439E
:102F1000C1EB011100EB81012878002E01EB0206C4
:102F20000ED000F0DDFC69784743084600F0D8FC7D
:102F3000C0EB0011A87807EB810500F0D1FC07E099
:102F40006A7800FB07F1A878C2EB021201EB820558
:102F5000291801F58030B14238BF00F5A341204661
:102F600000F0DCFD30B104206074002020740120EA
:102F700001B0F0BD2068416821F0020141600168A4
:102F800041F00201016040F20040C4F2010001681A
:102F900041F400310160816841F400318160012019
:102FA00060740020207401B0F0BD0000B0B504468C
:102FB00000284FF0010058D00D46002955D0207C44
:102FC00001284FF0020008BFB0BD012121746074D8
:102FD000E8786AB100F084FC6978E073084600F094
:102FE0007FFCA9786073084600F07AFC024603E093
:102FF000E0736878AA786073617BE07BA27300F06D
:1030000057FD20732870204600F040FD45F6907172
:10301000C0F20101884224D344F20751CCF22E21A0
:10302000A0FB0112110C40F2A3225143A0EBC115E9
:103030002046294600F088FD28B104206074002055
:1030400020740120B0BD204600F018FDA84208D22F
:1030500000F5803000F5A341204600F05FFD002818
:10306000EBD10120607400202074B0BD70B504461F
:1030700000284FF001004BD00D46002948D0207C9D
:1030800001284FF0020008BF70BD01212174607457
:1030900028788AB100F024FC69784FF4616200FB63
:1030A00002F6084600F01CFCC0EB0011A87806EB05
:1030B000810500F015FC08E06A784FF46161414336
:1030C000A878C2EB021201EB82050544204629468E
:1030D00000F03AFD28B10420607400202074012023
:1030E00070BD2068416821F005014160204600F074
:1030F000C5FCA84208D200F5803000F5A341204667
:1031000000F00CFD0028E6D101206074002020743E
:1031100070BD0000B0B5A8B104460068416821F058
:1031200008014160FFF764F9054600BF2068406868
:10313000000709D4FFF75CF9401BB0F57A7FF5D999
:103140000320B0BD0120B0BD0020B0BD4EF2100084
:10315000CEF20000016841F00201016070470000FA
:1031600080B500F01DFD80BD4EF21000CEF20000D3
:10317000016821F002010160704700007047000003
:1031800070470000B0B582B0036804461868D9687B
:103190005A6900F02F05202D01F0200505D125B139
:1031A000204600F095FD02B0B0BD5FEA007C1EBF76
:1031B00002F0010E01F4907212EB0E024AD1226B62
:1031C0000840C1063DD5012A3BD100200190186876
:1031D00001905868019001985869400642D4A08D2A
:1031E000E18DE28D002A1CBF401A5FEA004101D147
:1031F00002B0B0BD216851E8031F226821F490712C
:1032000042E80313002BF5D1216851E8051F22681D
:1032100021F0010142E80513002BF5D1202184F8AB
:1032200042100021216300BF216851E8031F22687A
:1032300021F0100142E80313002BF5D10221616354
:1032400054E0010658D44006D2D5204600F034FDA3
:1032500002B0B0BDC20718BF11F4807251D142074D
:1032600055D45BE0E06B016849688AB2002ABFD0A0
:10327000A38D9A42BCD2E1858069202831D000BF5D
:10328000206850E8030F216820F4807041E80302B1
:10329000002AF5D1206850E8050F216820F00100D0
:1032A00041E80502002AF5D1206850E8050F2168A1
:1032B00020F0400041E80502002AF5D1202084F8E2
:1032C00042000020206300BF206850E8030F2168FF
:1032D00020F0100041E80302002AF5D1E06BFEF770
:1032E00045FE02206063A08DE18D401A81B2204628
:1032F000FFF744FF02B0B0BD204600F0AFFD02B0C2
:10330000B0BD626C42F001026264420706D5BEF1B4
:10331000000F03D0626C42F002026264820706D59D
:10332000BEF1000F03D0626C42F004026264BCF193
:10333000000F06D55EEA050203D0626C42F0080277
:103340006264626C002A3FF453AF0840800602D5E5
:10335000204600F0BDFC20684069616C00F0400030
:1033600001F00801401827D0204600F07DFC2068BD
:10337000406940061BD500BF206850E8050F216852
:1033800020F0400041E80502002AF5D1E06B70B161
:1033900043F65941C0F600014163FEF707FE0028DD
:1033A0003FF426AFE06B416B884702B0B0BD2046CA
:1033B000FFF7E6FE02B0B0BD2046FFF7E1FE0020B9
:1033C000606402B0B0BD0000002804BF0120704757
:1033D00010B5044690F8410028B9002084F8400058
:1033E000204600F051F8242084F841002068C1688C
:1033F00021F40051C160204600F0CEFC2068016934
:1034000021F490410161416921F02A014161C168C3
:1034100041F40051C16000202021606484F8411013
:1034200084F84210606310BD10B5006844F200419A
:10343000C4F20001884212D043F60001C4F2010137
:10344000884218BF10BD41F21800C4F202000168A2
:10345000252421F4804101604FF4C06109E041F26C
:103460001800C4F202004168262421F400314160B2
:103470000C2140F60000C4F20100FEF703FE2046D6
:10348000FFF728F810BD0000B0B586B0006844F220
:10349000004140F60004C4F20001C4F20104884275
:1034A0004FF00001CDE90411CDE902112BD043F614
:1034B0000001C4F20101884257D141F21800C4F260
:1034C0000200016841F480410160016801F480411B
:1034D00001910199016841F004010160006802A9AD
:1034E00000F00400019001984FF400700290022057
:1034F0000390032005902046FEF776FE4FF480608F
:103500000290252522E041F21800C4F20200416831
:1035100041F400314160416801F4003101910199A9
:10352000016841F004010160006802A900F0040094
:10353000019001980420029002200390032005903E
:103540002046FEF751FE0820262502900020CDE9F6
:10355000030002A92046FEF747FE2846002100226C
:10356000FEF7C0FF2846FEF7B9FF06B0B0BD000069
:1035700010B590F84230202B1CBF022010BD00294E
:103580004FF0010418BF002A01D1204610BD0024CD
:10359000046300F049FC204610BD000080B540F6F1
:1035A0006011C2F20001884208D040F61811C2F240
:1035B0000001884208BF00F0A1FD80BDFDF748FF73
:1035C00080BD00002DE9F041044690F8410020281C
:1035D0001CBF0220BDE8F0810E4600294FF001001B
:1035E00044D01746002A08BFBDE8F0814FF000081C
:1035F00021201D46C4F8448084F84100FEF7F8FEFF
:10360000A784E784A1680746B1F5805F0DD12069E2
:10361000002814BF3046B046064606E016F8010BF7
:1036200021684860E08C0138E084E08C80B120465D
:1036300080213A462B4600F03BFC80B9002EEDD1AC
:1036400038F8020B21686FF35F2048600026E9E735
:10365000204640213A462B4600F02AFC10B10320B8
:10366000BDE8F081202084F841000020BDE8F08111
:1036700070470000FEE70000B0B584B040F6D4000B
:1036800042F200410024C2F20000C4F201014FF4F2
:10369000602201250394CDE9014404730475C261DD
:1036A000C0E9001484600561FEF750FA002818BFD5
:1036B000FDF7BAFE40F6D400C2F2000001A9CDE940
:1036C00001550394FEF7B6F9002818BFFDF7ACFECC
:1036D00004B0B0BD70B586B0002541F21800CDE948
:1036E0000455CDE90255C4F20200016840F60044D9
:1036F00041F0100101600168C4F2010401F0100101
:10370000019101990168002241F0200101600168E6
:103710004FF4E07601F0200101910199016841F038
:1037200004010160016801F004010191019901683F
:1037300041F00801016000684FF4E07100F00800FA
:10374000019001982046FEF74DFE02960126CDE934
:103750000365022002AD059020462946FEF744FD90
:103760004FF4007002900020C1F22100CDE9030661
:1037700020462946FEF738FD172000210022FEF7DB
:10378000B1FE1720FEF7AAFE06B070BD10B582B0DC
:1037900040F6041042F600010024C2F20000C4F218
:1037A00000018DF80640ADF8044000944FF0FF3260
:1037B0004FF4807380E80E00FFF70AFB002818BF63
:1037C000FDF732FE40F60410C2F2000001A901220A
:1037D000ADF804408DF80640FFF748FC002818BFFC
:1037E000FDF722FE40F20110C2F20130009040F6D7
:1037F0000410C2F2000069460122FFF7D7FB00283F
:1038000018BFFDF711FE02B010BD000080B540F6F4
:10381000181043F60001C2F20000C4F201010023B7
:103820004FF00C0C4FF4E13280E80E00C0E9033396
:10383000C0E905C3C361FFF7C7FD002818BFFDF746
:10384000F3FD80BD80B540F6601044F20041C2F245
:103850000000C4F2000100234FF00C0C4FF416528C
:1038600080E80E00C0E90333C0E905C3C361FFF778
:10387000ABFD002818BFFDF7D7FD80BDFEE70000B7
:10388000FEE7000000F0070080F00703042B28BFCC
:1038900004234FF0FF3C03380CFA03F338BF002039
:1038A000994381400CFA00F022EA00000843704777
:1038B0007047000081B040F20000C2F200000068D2
:1038C00044F6D351C1F26201A0FB0101480A009005
:1038D00000BF0098411E00280091F9D101B0704747
:1038E000010901EB810100F00F0000EB4100C0B2C3
:1038F00070470000A0F10A014CF6CD43CAB2CCF6E5
:10390000CC43A2FB0323DA0802EB8202A1EB4201C3
:10391000012202EBD302092888BF41EA0210C0B29B
:10392000704700002DE9F0410446407BA27B94F8EB
:103930000F8000293CD00E46012741F2AA5502E033
:103940000132013E34D00C28FBD807FA00F129429D
:1039500008D01E2AF4D90C2809D108F10108012049
:103960000122EEE711F4256F04D01D2AE8D90130B9
:103970000122E6E70228E4D11B2A02D80132022004
:10398000DFE71D2A0FD01C2A10D11FFA88F000F0A3
:1039900053F800284FF002004FF01D0208BF03202B
:1039A00008BF0122CDE701220320CAE70220C8E7B1
:1039B0006073A273C1B2D2B2404684F80F8000F0A7
:1039C00077F82073BDE8F081B0B50446FEF710FD2E
:1039D000054600BF20684168890607D4FEF708FD48
:1039E000401BB0F57A7FF5D90320B0BD416841F0A6
:1039F000100141600020B0BDB0B5044600684168C8
:103A000021F010014160FEF7F3FC05462068406894
:103A1000800607D4FEF7ECFC401BB0F57A7FF5D9A1
:103A20000320B0BD0020B0BD80B540F60410C2F246
:103A30000000FFF71FF980BD81071CBF0020704701
:103A400045F62941CCF28F21484345F628424FEAFA
:103A5000B001C0F28F2291424DF20B724FF0000381
:103A60004FF000014FEA3010C0F2A30288BF0121DD
:103A7000904238BF012341EA030070470068016AA1
:103A8000406A80B240EA01407047000002689169D4
:103A9000D2F81CC0936983EA010000041CBFD2F86D
:103AA0001CC019461FFA8CF040EA01407047000024
:103AB00080B5172301FB03FC48F63963C3F6E30323
:103AC000ACFB033C4FF4FA63032938BF40F2CF73D9
:103AD00003EB000E48F21F53C5F2EB13AEFB0331AC
:103AE00040F2D27338BF40F2D473184400EB9E000A
:103AF000A0EB511000EBD110104444F6251100EB5F
:103B00005C00C2F29241A0FB0112811A02EB51014A
:103B10008908A1EBC101084480BD0000B0B50D4685
:103B20000446FFF751FF00281CBF0120B0BD2068EC
:103B3000290C0162A9B241622046FFF75DFF00280F
:103B400018BF0120B0BD0000B0B50D460446FFF718
:103B50003BFF00281CBF0120B0BD2068290C8161FB
:103B6000A9B2C1612046FFF747FF002818BF012016
:103B7000B0BD00007047000080B540F60423C2F2DB
:103B8000000318700020586040F6041059709A70B5
:103B9000C2F2000019460022FFF790F980BD000034
:103BA000B0B501380024B4EB106F1CBF0120B0BDCC
:103BB0004EF21005CEF2000568604FF0FF300F2185
:103BC00000F0F2F90720AC6028602046B0BD00008C
:103BD00080B5FEF713FC80BD70B594B00AAC2046EA
:103BE0002821FCF7A6FA092000250A904FF480301E
:103BF0000226CDE90B050121CDE91160204609958A
:103C0000CDE90755CDE90555CDE90355CDE9015578
:103C10000E9110911395FEF7A3FEC0B90F20CDE9C8
:103C2000050605A80021CDE907550995FEF784FD95
:103C300068B9032001904FF40070029000200390B7
:103C400001A8FEF7F5FC002804BF14B070BDFDF715
:103C5000EBFB00007047000080B5406A0021C18581
:103C6000C184FFF78DFA80BD016851E8031F026827
:103C700021F4907142E80313002BF5D1016851E85B
:103C8000051F026821F0010142E80513002BF5D160
:103C9000016B01290AD100BF016851E8031F0268C6
:103CA00021F0100142E80313002BF5D1202180F808
:103CB000421000210163704780B50168CA6822F094
:103CC0004002CA60202180F84110FFF7D1FC80BD7E
:103CD00080B582B090F8421022291ED18268B2F5D8
:103CE000805F02D1016900294AD0816AB2F5805F04
:103CF00007D00AB9026922B10268526802F07F0255
:103D000001E0026852680A700121826A11448162EE
:103D1000C18D01390A04C18501D002B080BD01689E
:103D2000CA6822F02002CA60CA6822F48072CA609F
:103D30004A6922F001024A61202180F842100021E4
:103D40004163026B012A23D1016300BF016851E87E
:103D5000031F026821F0100142E80313002BF5D184
:103D600001680A68D20606D5002201920A6801920B
:103D7000496801910199818DFFF700FA02B080BD79
:103D80000168826A49686FF35F2111800221BCE7F4
:103D9000FFF704FC02B080BD10B504460068D4E90A
:103DA00002C22369016921F4405111430161616933
:103DB00043EA0C021143C26841F20C639A43114377
:103DC000C1604169A26921F44071114343F60002C8
:103DD000C4F201029042416102D0FEF76DFD01E0A4
:103DE000FEF77CFD6268192148439100B0FBF1F0B9
:103DF00048F21F51C5F2EB11A0FB01235A096FF0E5
:103E0000630302FB0300322303EB0010A0FB01015C
:103E1000F02303EA5113206803EB0212C1F34311AC
:103E20001144816010BD0000816200218285C2853D
:103E30004164222180F84210016921B10168CA68F9
:103E400042F48072CA600168486940F0010048612C
:103E5000C86840F020020020CA60704790F8411006
:103E6000212923D18168B1F5805F01D1016931B188
:103E7000016A02684B1C03620978516007E0016A1D
:103E8000036831F8022B6FF35F225A600162C18C24
:103E900001390A04C18418BF70470068C16821F065
:103EA0008001C160C16841F04001C16070470000FD
:103EB0002DE9F0410446006800680840884202D1BC
:103EC0000020BDE8F0811D460E4690465F1C04E0D0
:103ED000206800683040B042F2D0002FF8D02DB1F9
:103EE000FEF786FAA0EB0800A842F1D9206850E856
:103EF000030F216820F4D07041E80302002AF5D1B5
:103F0000206850E8050F216820F0010041E8050213
:103F1000002AF5D1202084F8410084F842000020D6
:103F200084F840000320BDE8F081000080B540F631
:103F30001810C2F20000FFF725F980BD80B540F6E9
:103F40006010C2F20000FFF71DF980BDFEE700001F
:103F5000002848BF704700F01F01012202FA01F15A
:103F60004EF280124009CEF2000242F82010BFF358
:103F70004F8FBFF36F8F7047002848BF704700F026
:103F80001F01012202FA01F14EF200124009CEF2A5
:103F9000000242F8201070474EF60C50CEF200009E
:103FA0000068C0F3022070474EF6145300F00F0271
:103FB000CEF2000309011A4400F16043B0F1FF3F63
:103FC000C8BF03F564421170704700004EF60C51F3
:103FD000CEF200010A684FF6FF031A4060F30A228E
:103FE00042F0806040F0FD70086070474EF60C5063
:103FF000BFF34F8FCEF200000168042201F4E061AC
:10400000C0F2FA5211430160BFF34F8F00BFFDE7CA
:104010002DE9F04381B040F6D40440F2FE0840F6AA
:10402000D0096FF00107C2F20004C2F20008C2F228
:10403000000900BF2046FDF70FFF20460121FDF7D4
:1040400045FE2046FDF77EFD08EB07067080204602
:10405000FDF772FF6420FEF701F87088D9F8005070
:10406000FCF722FD01462846FCF782FB0237C62FEB
:10407000C9F80000DED1D9F800000021C4F2C8213F
:10408000FCF7CEFBC9F80000FCF72CFD46F2666396
:10409000C4F20A034FF06632FCF700FC4FF60063EF
:1040A000C4F2AF030022FCF76BFCFCF72EFD01B05D
:1040B000BDE8F08380B500F03FF940F60C20C2F275
:1040C00000006421FCF735F840F69020C2F20000B1
:1040D00000218183C0E90011C0E90211C0E9041187
:1040E000816140F67020C2F20000C0E90011C0E911
:1040F0000211C0E904118161818380BD80B540F661
:104100001C3CC2F2000C9CF80010642924BF002162
:104110008CF800109CF8002040F61D31C2F200011E
:10412000501C0B788CF8000040F6B820C2F200005A
:10413000835440F61810C2F200000122FFF718FA6B
:1041400080BD000010B5642000F01AF8FFF70CF8ED
:10415000012001210124FEF7E1F9FEF7F7FFFEF748
:1041600047F940F6B421C2F20001086040F21300A2
:10417000C2F200000470642000F002F810BD0000DC
:10418000B0B540F60045C4F201050446284680213A
:104190000122FEF727F92046FDF760FF284680211F
:1041A0000022FEF71FF9B0BDFEF736F9FFF714FD48
:1041B000FFF790FAFFF760FAFFF728FBFFF742FBE3
:1041C000FFF7E4FAFDF714FCFDF7E6FA00F066FAF3
:1041D00040F6AC1840F6B82540F6002940F6B42B5E
:1041E00040F60C27C2F20008C2F2000548A6C2F24F
:1041F000000942F2117AC2F2000B49F64144C2F2C0
:10420000000700BFFEF7F4F8D8F80010401AB0F528
:10421000FA6F12D940F20400C2F200000078802147
:10422000B0FA80F0420940F60040C4F20100FEF707
:10423000D9F8FEF7DDF8C8F8000028463146FBF74C
:1042400083FF58B3FDF72AFB384633A1FBF77CFF09
:1042500068B140F6902040F20501C2F20000C2F2BF
:104260000001FBF771FF002818BF00F03FF9384646
:104270002DA1FBF769FF68B140F6902040F20501DF
:10428000C2F20000C2F20001FBF75EFF002818BF77
:1042900000F0C8F8FFF70EFF00F000FAFEF7A8F8EC
:1042A000D9F80010401A504511D340F6A810C2F2B8
:1042B00000000078012808BF00F0E6F840F2FD0099
:1042C000C2F200000078012808BF00F069F8FEF78C
:1042D0008FF8DBF80010401AA04293D340F213008D
:1042E000C2F20000007801288CD140F60040C4F2F0
:1042F00001004FF480710022FEF774F8FDF734FAE4
:104300004FF47A70FDF7AAFEFFF71CFF7AE700BFB3
:104310002B434D54493A000073656E64206C6F6303
:104320006174696F6E000000626174746572792057
:10433000766F6C746167650080B540F61C30C2F220
:1043400000000021017040F6B820C2F20000642194
:10435000FBF7EFFE80BD0000F0B581B00C460546CE
:10436000FFF7EAFF284600F07FF940F6B82542F251
:104370001077C2F200054FF69C7600BF2846214612
:10438000FBF7E2FE48B932203744FDF767FEBFB2C3
:10439000002FF3D1002001B0F0BD012001B0F0BD2D
:1043A00010B588B0FDF724FB40F2FD00C2F200001A
:1043B00000210170FFF72CFE40F22001C2F2000143
:1043C0000860FCF78FFB0DF1020402460B460FA1BB
:1043D000204600F087F940F20501C2F200012046B4
:1043E000FDF7CAFA152000210022FFF7C5FB40F2B5
:1043F0001300C2F2000001210170FDF7F9FF40F641
:10440000B421C2F20001086008B010BD626174748A
:1044100065727920766F6C746167653A2566200D48
:104420000A00000010B588B04FF47A7000F046F929
:10443000FFF7EEFD0146FCF79BF940F22001C2F2C6
:1044400000010860FCF74EFB0DF1020402460B462A
:1044500006A1204600F046F940F20501C2F2000133
:104460002046FDF789FA08B010BD00BF6261747480
:1044700065727920766F6C746167653A25302E32EB
:1044800066200D0A0000000080B540F6A810C2F2B8
:10449000000000210170FDF7ABFA40F205010AA00F
:1044A000C2F20001FDF768FA40F21300C2F2000008
:1044B00001210170FDF79CFF40F6B421C2F200011A
:1044C0000860FFF739FF80BD70726F6261626C65D2
:1044D0002064616E6765722C636865636B20796F19
:1044E0007572206361720D0A000000002DE9F04F23
:1044F00083B040F60044C4F20104FDF779FF40F6B2
:10450000B029C2F20009C9F8000040F66010C2F2FA
:104510000000FEF7B9FF20464FF480710122FDF73D
:1045200061FFFCF787FF40F2240A002440F20508EF
:10453000C2F2000AC4F2400449F6414B42A6C2F25C
:10454000000812E0DAE900500021FCF796FA07466D
:10455000002828464FF0000118BF0127FCF78DFA0C
:10456000002818BF012007423CD0DAE90070002182
:10457000FCF783FA40BB38460021FCF77EFA18BBF3
:10458000FFF746FD0146FCF7F3F82146FCF767FA12
:10459000D0B9DAE90070FCF7A5FA05463846CB46F3
:1045A000C1468846FCF79EFA009040F6B0100F46D0
:1045B000C2F2000019A12A464346C846D94649F628
:1045C000414B019700F08EF8FDF712FFD9F800106B
:1045D000401A5845B6D330464146FDF7CDF9FDF7B0
:1045E00095FFAFE740F6B01040F20501C2F20000BF
:1045F000C2F20001FDF7C0F940F66010C2F20000FF
:10460000FEF712FF40F60040C4F201004FF4807143
:104610000022FDF7E7FE03B0BDE8F08F6874747008
:104620003A2F2F6D6170732E676F6F676C652E6305
:104630006F6D2F6D6170733F713D6C6F633A2566CE
:104640002C2566200D0A00006572726F7220696E5B
:1046500020737570706C79204E454F2D366D20702B
:104660006F776572200D0A00B0B540F61815C2F2DA
:10467000000540F61D310446C2F200012846012221
:10468000FEF776FF2046FBF771FD82B228462146F1
:104690004FF47A73FEF796FFB0BD000080B540F28C
:1046A0001300C2F2000001210170FDF7A1FE40F6E7
:1046B000B421C2F20001086080BD0000B0B540F630
:1046C0000045C4F201050446284640210122FDF7B9
:1046D00089FE2046FDF7C2FC284640210022FDF756
:1046E00081FEB0BD0FB4084B10B504A902AA03980F
:1046F00000F0E6F8044602A9002000F078FC20460D
:1047000010BC5DF814FB0000EF4F000802E008C881
:10471000121F08C1002AFAD170477047002001E03B
:1047200001C1121F002AFBD1704700002DE9FF5F75
:1047300082B00021DDE90430020DDDF840B0034312
:1047400018D044F61050A2F2FF32424315141198CB
:1047500001281FD0A5EB0B00401C5FEA000A4FF0B8
:1047600000064E4FDFF83891B046504615D5CAF1D5
:10477000000413E0119801244AA3012801D16FEA33
:104780000B010298119AC0E90031C0E9024206B05B
:10479000BDE8F09FCBF10000DFE704460021404A6E
:1047A000491842EB0450CDE9001012E0E00707D0B1
:1047B00032463B4640464946FCF770F880468946FB
:1047C00032463B4610461946FCF768F806460F4647
:1047D0006410002CEAD1DDE90401DDE90023BAF11F
:1047E000000F06DAFCF75AF842464B46FCF756F83B
:1047F00005E0FCF7C5F842464B46FCF7C1F8044615
:104800000E460022284BFCF785FB03D84FF0FF3003
:10481000014607E00022254B20463146FCF7AEFA60
:10482000FCF75FFB102409E0002C0ADB0A220023BE
:10483000FCF79DF9039B30321A55641E50EA0102C1
:10484000F2D1641C039AC4F111031444119A012A91
:1048500003D0012208430DD10AE0084304D0002010
:104860004FF0110B119072E7A3EB0B056D1E0DE0DD
:104870005B4504DD4FF0000205F1010504E003DAB9
:104880004FF00002A5F10105002AECD00298119921
:10489000C0E90231C0E9004579E70000000014409A
:1048A0000000F03F300000000000F0430000E03F57
:1048B00030380A2801D201207047002070470000DC
:1048C0002DE9FF4F95B09B468946064600250FE22D
:1048D000252877D100242746F84A0121059400E0D5
:1048E000044316F8013F203B01FA03F01042F7D1D0
:1048F00030782A2811D06FF02F033078A0F13002E1
:10490000092A16D8059A44F0020402EB820203EB4E
:1049100042021044761C0590EFE759F8042B0592EB
:10492000002A03DA504244F40054059044F0020493
:10493000761C30782E2816D116F8010F44F00404A6
:104940002A280DD06FF02F023078A0F13003092B08
:1049500009D807EB870302EB4303C718761CF3E77C
:1049600059F8047B761C30786C280FD006DC4C2874
:1049700017D068280DD06A2814D104E0742810D00C
:104980007A280FD10DE044F400140AE044F48014B6
:1049900001E044F440147278824202D104F580149C
:1049A000761C761C307866280BD013DC582877D01C
:1049B00009DC002875D04528F6D04628F4D04728D1
:1049C0001AD19DE118E0632835D0642879D0652894
:1049D00012D195E1702873D008DC6728F1D06928DE
:1049E0006FD06E280DD06F2806D1B5E073282CD07B
:1049F000752875D0782874D05A46179990476D1C41
:104A000075E1C4F30250022809D003280DD0D9F86B
:104A1000001004280DD00D6009F1040967E1D9F8F0
:104A20000010EA17C1E90052F6E7D9F800100D802E
:104A3000F2E70D70F0E719F8041B8DF80010002064
:104A40008DF80100EA46012003E059F804AB4FF06D
:104A5000FF3061074FF0000102D40DE008F10101C1
:104A60008846B9420FDA8045F8DB1AF808100029A9
:104A7000F4D108E008F1010188468142FADB1AF816
:104A800008100029F6D105985B46A0EB08072146DF
:104A90003846179A00F094FA284400EB080507E01E
:104AA0004DE029E10DE01AF8010B5A46179990479D
:104AB000B8F10108F7D25B4621463846179A13E150
:104AC00042E00A220092C4F302524FF0000A022A86
:104AD00008D059F804CB032A4FEAEC710AD00DE054
:104AE00029E02AE009F1070121F00702F2E802C1FA
:104AF000914609E00FFA8CFC4FEAEC71042A03D1CD
:104B00004FFA8CFC4FEAEC71002907DA0A460021C3
:104B1000DCF1000C61EB02012D2202E0220504D53C
:104B20002B228DF80420012203E0E20701D020228D
:104B3000F7E7904659E00A2102E010220DE010212B
:104B40004FF0000A00910BE010224FF0000A44F0F1
:104B500004040827009203E008224FF0000A0092A4
:104B6000C4F30252022A05D059F804CB0021032ACB
:104B700008D009E009F1070121F00702F2E802C1BB
:104B8000914605E01FFA8CFC042A01D10CF0FF0CC1
:104B90004FF00008220728D5702806D0009B83F02C
:104BA000100353EA0A0305D00EE040228DF80420DA
:104BB000012208E05CEA010206D030228DF80420D0
:104BC0008DF8050002229046009B83F0080353EA0B
:104BD0000A030AD15CEA010201D1620705D530223D
:104BE0008DF804204FF001087F1E582804D034A00F
:104BF00003900EA802900DE036A0F9E753466046F8
:104C0000009AFBF7B4FF84460398825C0298401E2A
:104C1000029002705CEA0100F0D1029806A9081A1D
:104C200000F1200A600702D524F4803400E0012757
:104C3000574502DDA7EB0A0000E0002000EB0A0167
:104C4000009005984144401A0590E00306D45B4665
:104C50002146179A059800F0B3F90544002706E0AD
:104C600001A85A46C05D179990476D1C7F1C4745A7
:104C7000F6DBE0030CD55B462146179A059800F059
:104C80009FF9054404E030205A46179990476D1C5F
:104C90000099481E00900029F5DC08E0029802996E
:104CA0005A460078491C0291179990476D1CBAF139
:104CB0000001AAF1010AF1DC65E100000928010008
:104CC0003031323334353637383961626364656682
:104CD0000000000030313233343536373839414244
:104CE000434445460000000000F058F90544761C96
:104CF000307800287FF4ECAD19B02846BDE8F08F7D
:104D0000620700D4062709F1070222F0070CFCE82D
:104D10000223E14603F000485FEA080C02D00FF2DC
:104D2000702C0DE05FEA045C02D50FF2682C07E0FE
:104D30005FEAC47C02D00FF2602C01E0AFF2700C8D
:104D40004FF0FF3823F00043CDF850C065280CD059
:104D500006DC452809D046281DD047283DD13DE036
:104D6000662818D067287ED138E00021112F01DB9A
:104D7000112000E0781CCDE9000106A90EA8FFF77C
:104D8000D5FCDDE90F010E9A03910021009207F195
:104D9000010A04914DE04FF000400097CDE9011069
:104DA00006A90EA8FFF7C2FCDDE90F0203920E9BD5
:104DB00011990022DDF80CA00093049211B9791C1E
:104DC00000EB010AB7EB0A0004D4C0F1FF3007F191
:104DD000010A0490AAEB0700019044E0012F00DAD9
:104DE00001270021112F01DD112000E03846CDE917
:104DF000000106A90EA8FFF799FCDDE90F010E9A44
:104E00000391002104910092BA4621070CD4039922
:104E1000514500DA8A46BAF1010F05DD009AAAF180
:104E20000101515C302908D0B84202DA10F1040FB8
:104E300006DA0121CDE9011015E0AAF10101E9E747
:104E4000002805DC049901440491AAEB000102E06A
:104E5000411C514500DD8A460499401A401C0190CE
:104E60004FF000400290200704D40198504501DB28
:104E7000CDF8048000208DF84F0002980DF14F0707
:104E8000B0F1004F25D02B200E9002984FF0020871
:104E900000280CDA404202902D200E9007E00A21F3
:104EA0000298FBF74EFE3031029007F8011DB8F171
:104EB0000001A8F10108F2DC02980028EFD1791E68
:104EC0000E980870307800F0200040F0450007F898
:104ED000020D12A8C01B00F107081498007800B159
:104EE000012000EB0A01019801EBE07105984144B3
:104EF000401A401E0590E00306D45B462146179AEF
:104F0000059800F05DF805441498007818B15A46E9
:104F1000179990476D1CE00324D55B462146179AEC
:104F2000059800F04DF805441CE00498002807DBC4
:104F3000DDE90301884203DD0098405C179901E038
:104F4000179930205A469047049805F10105401CF6
:104F500004900198401E019004D12E205A461799C2
:104F600090476D1CBAF10001AAF1010ADDDC05E0F1
:104F700017F8010B5A46179990476D1CB8F10001BC
:104F8000A8F10108F4DC5B462146179A0598ABE6C8
:104F90002D0000002B000000200000002DE9F04152
:104FA000044600251E461746880404D405E0394609
:104FB0002020B0476D1C641EF9D52846BDE8F0815D
:104FC0002DE9F041044600251E469046C80301D550
:104FD000302700E02027880404D505E04146384604
:104FE000B0476D1C641EF9D52846BDE8F0810A68FB
:104FF000531C0B6010707047DDDDDDDDDCBBBBDDFD
:10500000DDDDDDDDDDDDDDDD988888888888888868
:105010007777777777888888855555566666666688
:105020006666666666688888833333322222222267
:10503000222222222228888D000000000000000089
:10504000010203040607080900000000010203042E
:1050500041542B434D4744413D2244454C20414C53
:105060004C220D0A004F4B0D0A002B434D475200B6
:105070002447504747412C25662C25662C25632C58
:1050800025662C25632C25642C25642C25662C256F
:10509000662C256300000000B850000800000020C6
:1050A000200000000C470008D85000082000002015
:1050B000080F00001C4700080024F400012B3938B9
:1050C00039333738393336393936000101000000B9
:0850D0001000000000000000C8
:04000005080000ED02
:00000001FF
