:020000040800F2
:10000000E8040020010100086518000859160008DE
:1000100061180008C5010008411D0008000000002B
:10002000000000000000000000000000411A00086D
:10003000C90100080000000095180008751A0008A2
:100040001B0100081B0100081B01000839190008EA
:100050001B0100081B0100081B0100081B01000810
:100060001B0100081B0100081B0100081B01000800
:100070001B0100081B0100081B0100081B010008F0
:100080001B0100081B0100081B0100081B010008E0
:100090001B0100081B0100081B010008CD0100081E
:1000A0001B0100081B0100081B0100081B010008C0
:1000B0001B0100081B0100081B0100081B010008B0
:1000C0001B0100081B0100081B0100081B010008A0
:1000D0001B010008211D0008311D00081B0100083C
:1000E0001B0100081B0100081B010008DFF80CD0F1
:1000F00000F02AF800480047B91D0008E804002075
:100100000648804706480047FEE7FEE7FEE7FEE7B1
:10011000FEE7FEE7FEE7FEE7FEE7FEE7F91A000866
:10012000ED000008D2B201E000F8012B491EFBD21D
:1001300070470022F6E710B513460A4604461946F2
:10014000FFF7F0FF204610BD064C074D06E0E068C3
:1001500040F0010394E8070098471034AC42F6D30E
:10016000FFF7C8FF0C1E00082C1E0008B0B504469F
:1001700000688168C90709D0816821F001018160A8
:1001800000F004FB21688968C90701D10020B0BDD7
:10019000054603E020688068C007F7D000F0F6FA53
:1001A000401B0328F6D320688068C007F2D0A06AFD
:1001B00040F01000A062E06A40F00100E06201201F
:1001C000B0BD0000FEE700007047000080B54FF4AE
:1001D000007000F0C9F980BDEFF3108072B600BF67
:1001E000FEE70000B0B581B00022009290F8242014
:1001F000012A01D1022179E04A680123062A80F808
:10020000243005D803686FF0040C03F1340E0AE0C3
:1002100003680C2A87BF03F12C0E6FF0400C03F12A
:10022000300E6FF0220C02EB8202DEF800506244C6
:100230001F230C68934025EA030304FA02F21A43D1
:10024000CEF80020D1F800E002680EEB4E05102435
:10025000BEF1090F88BF1E3D88BF0C2452F804C0B0
:1002600007238968AB402CEA0303A94019431151C5
:100270002EF001014FF0000C10294FF0000133D196
:10028000016842F20042C4F20102914205D0816A43
:1002900041F020018162012126E09268120222D4FD
:1002A0008A68BEF1100F42F400028A601BD140F24E
:1002B0000001C2F2000109684DF68362C4F21B32EC
:1002C000A1FB0212910C01EB810149000091009900
:1002D00049B100BF009901390091009900294FF000
:1002E0000001F7D100E0002180F824C0084601B0E9
:1002F000B0BD0000002804BF01207047F0B581B0F8
:100300000746044657F8280F30B90020E06284F809
:100310002400204600F07AF82046FFF727FFA26A63
:10032000A16A002808BF12F0100205D041F01001A8
:100330000120396001B0F0BD41F202129143023157
:10034000A162E169D4E9013241EA0305511EB1FA23
:1003500081F149091346B2F5807F18BF0B02267D53
:10036000217B012E45EA410C11D141B1A16A41F036
:100370002001A162E16A41F00101E16207E0A169A7
:100380004EF60006CFF6FF7606EB41310B432168AF
:10039000B2F5807F4E6826F4694643EA06034B6057
:1003A0008B684FF2FD76CFF6E17603EA060343EA67
:1003B0000C038B6001D0012A06D122690023CFF6FD
:1003C000F07303EB025200E00022CB6A23F47003C7
:1003D0001A43CA62896840F6FE62CFF61F72114066
:1003E000614506D10021E162A16A012262F30101A7
:1003F0009FE7A06A40F0100020F00200A06254F8CD
:100400002C0F40F001010120274692E780B586B00D
:10041000014640F60000C4F20100096800F5E05210
:1004200091424FF00001CDE90411CDE9021101D054
:1004300006B080BD41F21801C4F202010A6842F41C
:1004400000720A600A6802F400720192019A0A6856
:1004500042F004020A60096801F004010191019967
:10046000022102910321039102A900F08BF806B04A
:1004700080BD0000014690F82100022813D10868D1
:10048000D1E90FC3026822F00E020260026822F076
:1004900001020260012000FA03F2CCF8042081F886
:1004A0002100002002E0042088630120002281F85E
:1004B0002020704780B590F82110022923D10268CE
:1004C000116821F00E0111602F211368C4F202019E
:1004D0008A4240F20401C4F2020123F001031360D6
:1004E00016DD3023C4F202039A421DD04423C4F225
:1004F00002039A421BD05823C4F202039A421BD132
:100500004FF4803320E0042181630121084680BD3F
:100510000823C4F202039A420CD01C23C4F2020343
:100520009A4209D110230FE04FF480730CE04FF48E
:10053000805309E0012307E001F1680C4FF080735C
:10054000624508BF4FF480130B60012180F8211031
:10055000426B002180F820100AB190470021084624
:1005600080BD00007047000080B540F21441C4F225
:1005700001010A68024208BF80BD0860FFF7F2FF70
:1005800080BD00002DE9F04F82B00E68002E00F013
:10059000F38041F20042C4F20102042340F2004E13
:1005A000904208BF03234FF6FF7CC4F2010E009374
:1005B00000240123C1F2100C4FF0000A4FF0000993
:1005C00041E0012504F00C030F279F402BEA0707A9
:1005D00005FA03F33B4342F826304E6840F20C45DF
:1005E000F202DEF8082054BF22EA080242EA0802BA
:1005F000C4F20105CEF808202A68B30254BF22EAEB
:10060000080242EA08022A60B303DEF8042054BF5D
:1006100022EA080242EA0802F303CEF80420DEF8D8
:1006200000204FF0010354BF22EA080242EA080208
:10063000CEF800200E680AF1010A36FA0AF204F137
:10064000040400F0998003FA0AFB16EA0B08F1D0C3
:100650004A68624510DC122A50D8DFE802F0330AFB
:1006600041454F4F4F4F4F4F4F4F4F4F4F4F4F48B9
:100670004C00D1F80C9041E04FF6FF75C1F2210516
:10068000AA420FDC0025C1F21105AA421AD00025AA
:10069000C1F21205AA4215D00025C1F22105AA42D5
:1006A00010D02BE00025C1F22205AA420AD0002575
:1006B000C1F23105AA4205D00025C1F23205AA4295
:1006C0001CD100BF8A6842B1012A14BFC0F814B01F
:1006D000C0F810B04FF0080910E04FF004090DE029
:1006E000CA6802F1080909E04FF0000906E0CA688B
:1006F00002F1040902E0CA6802F10C09224605462B
:10070000B8F5807F24BF203A04352E680F27974024
:10071000BE4309FA02F232432A60CA79D2067FF553
:1007200089AF41F21803C4F202031A684FEA9A062D
:1007300042F001021A601A6840F6000302F001025A
:100740000192019AAEF57E7252F826B0C4F201030E
:1007500098420FD040F60043C4F2010398423FF4A0
:1007600030AF41F20003C4F20103009D984208BF7C
:10077000022527E7002525E702B0BDE8F08F00003D
:10078000002A08BF090401617047000040F2E4003C
:10079000C2F200000068704740F2040040F2E40139
:1007A000C2F20000C2F2000100780A68104408603A
:1007B0007047000080B542F20000C4F202000168F8
:1007C00041F010010160032000F066F8002000F005
:1007D00005F800F02BF8002080BD0000B0B540F215
:1007E0000402C2F2000240F200011278C2F20001DB
:1007F0004FF47A730968B3FBF2F20446B1FBF2F1ED
:10080000084600F057FD0F2C4FF001050CD858B9E1
:100810004FF0FF3021460022002500F02DF840F275
:100820000800C2F2000004602846B0BD82B041F268
:100830001800C4F202000168022241F001010160C7
:10084000016801F0010101910199416841F0805175
:100850004160406800F08050009000980420C4F28D
:100860000100016862F31A61016002B07047000084
:1008700080B501F067FA80BD70B514460D46064696
:1008800001F070FA2946224600F0EEFF014630469C
:1008900001F070FA70BD000080B501F07DFA80BDF6
:1008A0002020C4F20E2001210160704780B501288C
:1008B00018D0022841D010283DD141F20401C4F2E1
:1008C00002010A6851F8040CC00134D5C2F3834018
:1008D0002EA3185CD2033FD440F60012C0F23D02B2
:1008E000504345E041F20400C4F20200C16940F205
:1008F00002320A40B2F5817F04BF4FF4004080BD50
:1009000001F44071B1F5407F0DD0B1F5007F12D1F7
:10091000026A920744BF49F6404080BDB1F5407F6E
:100920001CBF002080BD50F8040C4FF2244180030E
:1009300001EAE07080BD002080BD00F087F941F23F
:100940000401C4F2020109680222C1F3813102EB01
:100950004101B0FBF1F080BD0A6810A3C2F3404230
:100960009A5C41F20023C0F27A03B3FBF2F25043E7
:100970000968490248BF80BD4AF6AB214000CAF66B
:10098000AA21A0FB0101480880BD00BF02030405A5
:10099000060708090A0B0C0D0E0F101001020000CB
:1009A0002DE9F04182B00446007841F21C06C007F0
:1009B000C4F202064AD0306810F0805808D130687E
:1009C00040F080503060306800F080500190019815
:1009D00047F20007C4F200073868C00512D438682F
:1009E00040F480703860FFF7D1FE05463868C005D6
:1009F00008D4FFF7CBFE401B6428F7D9032002B0D0
:100A0000BDE8F081706810F4407012D0616801F4A4
:100A1000407188420DD0706840F24042C4F24222D8
:100A2000012320F4407113600023C007136071603C
:100A300029D17068616820F440700843B8F1000F54
:100A4000706003D1306820F08050306020688107EA
:100A500007D556F8181CA26821F44041114346F806
:100A6000181CC00603D4002002B0BDE8F08156F87F
:100A7000180CE16820F48000084346F8180C0020A8
:100A800002B0BDE8F081FFF781FE054641F28837EC
:100A900070688007CDD4FFF779FE401BB8424FF055
:100AA0000300F5D9ECE700002DE9F04381B0002800
:100AB00000F0898042F20008C4F202080446D8F827
:100AC00000000D4600F0070088420CD2D8F8000064
:100AD00020F007002843C8F80000D8F8000000F014
:100AE0000700A8426FD1206841F204098107C4F2CF
:100AF000020917D5410705D5D9F8001041F4E06186
:100B0000C9F80010010705D5D9F8001041F460516B
:100B1000C9F80010D9F80010A26821F0F0011143C3
:100B2000C9F80010C00745D1D8F8000000F0070050
:100B3000A8420CD9D8F8000020F007002843C8F8D4
:100B40000000D8F8000000F00700A8423BD1206860
:100B5000410707D5D9F80010E26821F4E06111439C
:100B6000C9F80010000708D5D9F80000216920F461
:100B7000605040EAC100C9F8000000F079F8D9F8E7
:100B8000001041F6F452C1F30311C0F60002515CAB
:100B900040F2000220FA01F140F20800C2F2000027
:100BA0000068C2F200021160FFF718FE002001B0D9
:100BB000BDE8F0836068022809D0012829D159F8DE
:100BC000041C890307D4012001B0BDE8F08359F863
:100BD000041C8901F7D5D9F8001021F0030108435E
:100BE000C9F80000FFF7D2FD064641F2883700BF82
:100BF000D9F80000616800F00C00B0EB810F93D0D1
:100C0000FFF7C4FD801BB842F2D9032001B0BDE854
:100C1000F08359F8041C8907D5D5DCE740F20000C1
:100C2000C2F200000068704780B5FFF7F7FF41F29D
:100C30000401C4F20201096841F60462C1F3022111
:100C4000C0F60002515CC84080BD000080B5FFF7CF
:100C5000E5FF41F20401C4F20201096841F60462B1
:100C6000C1F3C221C0F60002515CC84080BD000043
:100C700041F2040CC4F2020CDCF8003003F00C006A
:100C8000082841F20020C0F27A0018BF7047C3F371
:100C900083420AA18A5CD90305D440F60010C0F251
:100CA0003D0050437047DCF8001008A3C1F34041F9
:100CB000595C5043B0FBF1F0704700BF02030405DC
:100CC000060708090A0B0C0D0E0F10100102000098
:100CD0002DE9F04182B0002800F0C480044600787D
:100CE00041F20006C007C4F2020643D0706800F06B
:100CF0000C00042817D0706800F00C00082802D1FE
:100D00007068C0030FD465682DB1B5F5A02F10D061
:100D1000B5F5803F11D0306820F480303060306805
:100D200020F480200CE03068800323D5606808BB85
:100D300098E0306840F480203060306840F48030C3
:100D40003060FFF723FD002D054610D0306880038A
:100D500010D4FFF71BFD401B6428F7D904E100BF46
:100D6000FFF714FD401B64284FF0030077D830686C
:100D70008003F5D42078800718D5706810F00C0F28
:100D800007D0706800F00C00082826D17068C003F6
:100D900023D43068800702D52069012862D13068E9
:100DA000616920F0F80040EAC10030602078000757
:100DB0003DD5A06938B30020C4F242200121C0F81B
:100DC0008014FFF7E3FC0546706A80072DD4FFF717
:100DD000DDFC401B0228F7D9C6E02069002840F25C
:100DE0000000C4F2422000F0968001210160FFF76C
:100DF000CDFC054630688007D1D4FFF7C7FC401B07
:100E00000228F7D9B0E00020C4F242200021C0F847
:100E10008014FFF7BBFC0546706A800707D5FFF713
:100E2000B5FC401B0228F7D99EE000F035FD207884
:100E300040071BD4E5698DB1706800F00C000828EC
:100E400047D1012D0ED07068216A00F480328A42A9
:100E500008D1616A00F47010884203D1002002B00A
:100E6000BDE8F081012002B0BDE8F081F06910F02A
:100E7000805808D1F06940F08050F061F06900F0CE
:100E800080500190019847F20007C4F200073868CB
:100E9000C00510D4386840F480703860FFF776FCE5
:100EA000054600BF3868C00505D4FFF76FFC401B3E
:100EB0006428F7D958E0E5681DB1052D3CD0012D17
:100EC0003ED0306A20F001003062306A20F0040029
:100ED00039E00027C4F2422700203866FFF756FCAD
:100EE000022D05460CD100BF3068800154D5FFF7B4
:100EF0004DFC401B02284FF00300F5D9AFE700BFBF
:100F000030688001AAD5FFF741FC401B02284FF052
:100F10000300F5D9A3E700210160FFF737FC054680
:100F2000306880077FF542AFFFF730FC401B022896
:100F30004FF00300F4D992E7306A40F004003062C9
:100F4000306A40F001003062FFF720FC002D0546BA
:100F500041F2883714D000BF306A800713D4FFF7FE
:100F600015FC401BB842F7D9032002B0BDE8F08160
:100F7000FFF70CFC401BB8424FF003003FF66FAF89
:100F8000306A8007F4D4B8F1000F7FF453AFF069F2
:100F900020F08050F0614DE7206AB0F5803F05D128
:100FA0007168A26821F40031114371607168626A4E
:100FB00021F4741110430843706001203866FFF774
:100FC000E5FB0446306880013FF548AFFFF7DEFBE4
:100FD000001B02284FF00300F4D940E770470000DF
:100FE0007047000010B5044600680168C9071CBFBF
:100FF00041685FEAC17100D110BD4068400704D468
:101000002046FFF7EBFF012007E02046FFF7E8FF4F
:1010100020686FF00401416004206074206841681A
:1010200021F00101416010BDB0B5E8B30446407C39
:1010300020B900202074204600F042F8022060749D
:10104000204600F01BF950BB204600F045FC30BBA9
:101050002268A068536846F62C41C4F2000123F0D0
:101060000703536018B14A6822F001024A600A6817
:1010700022F46072104308606068411C05D10120B1
:101080000125FFF713FCC8B101382168C0F3034202
:1010900080B28A60C860204600F036FC30B101257D
:1010A000042060742846B0BD0120B0BD40F201109C
:1010B0000025A4F80D000120E573F2E70420F0E715
:1010C00080B582B0006842F60001C4F20001884297
:1010D00001D002B080BDFFF7E3FB41F21C00C4F277
:1010E00002000168002241F00061016000680121F6
:1010F00000F000600190019840F23C40C4F24220B0
:10110000016003200021FFF7B7FB0320FFF7B0FBCE
:1011100002B080BDB0B5044600284FF0010058D0A1
:101120000D46002955D0207C01284FF0020008BF51
:10113000B0BD012121746074E8786AB100F0C2FB8F
:101140006978E073084600F0BDFBA9786073084633
:1011500000F0B8FB024603E0E0736878AA78607399
:10116000617BE07BA27300F009FC207328702046AD
:1011700000F0F2FB45F69071C0F20101884224D3E1
:1011800044F20751CCF22E21A0FB0112110C40F2C7
:10119000A3225143A0EBC1152046294600F03AFC9A
:1011A00028B104206074002020740120B0BD2046C6
:1011B00000F0CAFBA84208D200F5803000F5A34138
:1011C000204600F011FC0028EBD1012060740020C3
:1011D0002074B0BD70B5044600284FF001004BD01C
:1011E0000D46002948D0207C01284FF0020008BF9E
:1011F00070BD01212174607428788AB100F062FB0F
:1012000069784FF4616200FB02F6084600F05AFB71
:10121000C0EB0011A87806EB810500F053FB08E055
:101220006A784FF461614143A878C2EB021201EB86
:10123000820505442046294600F0ECFB28B1042035
:10124000607400202074012070BD2068416821F086
:1012500005014160204600F077FBA84208D200F566
:10126000803000F5A341204600F0BEFB0028E6D107
:10127000012060740020207470BD0000B0B5A8B1DA
:1012800004460068416821F008014160FFF77EFADA
:10129000054600BF20684068000709D4FFF776FACA
:1012A000401BB0F57A7FF5D90320B0BD0120B0BD59
:1012B0000020B0BD80B500F0C5FB80BD70470000C8
:1012C00070470000B0B582B0036804461868D9685A
:1012D0005A6900F02F05202D01F0200505D125B118
:1012E000204600F047FC02B0B0BD5FEA007C1EBFA4
:1012F00002F0010E01F4907212EB0E024AD1226B41
:101300000840C1063DD5012A3BD100200190186854
:1013100001905868019001985869400642D4A08D08
:10132000E18DE28D002A1CBF401A5FEA004101D125
:1013300002B0B0BD216851E8031F226821F490710A
:1013400042E80313002BF5D1216851E8051F2268FC
:1013500021F0010142E80513002BF5D1202184F88A
:1013600042100021216300BF216851E8031F226859
:1013700021F0100142E80313002BF5D10221616333
:1013800054E0010658D44006D2D5204600F0E6FBD2
:1013900002B0B0BDC20718BF11F4807251D142072C
:1013A00055D45BE0E06B016849688AB2002ABFD07F
:1013B000A38D9A42BCD2E1858069202831D000BF3C
:1013C000206850E8030F216820F4807041E8030290
:1013D000002AF5D1206850E8050F216820F00100AF
:1013E00041E80502002AF5D1206850E8050F216880
:1013F00020F0400041E80502002AF5D1202084F8C1
:1014000042000020206300BF206850E8030F2168DD
:1014100020F0100041E80302002AF5D1E06BFFF74D
:1014200029F802206063A08DE18D401A81B2204628
:10143000FFF744FF02B0B0BD204600F047FC02B009
:10144000B0BD626C42F001026264420706D5BEF193
:10145000000F03D0626C42F002026264820706D57C
:10146000BEF1000F03D0626C42F004026264BCF172
:10147000000F06D55EEA050203D0626C42F0080256
:101480006264626C002A3FF453AF0840800602D5C4
:10149000204600F06FFB20684069616C00F040005E
:1014A00001F00801401827D0204600F02FFB2068EB
:1014B000406940061BD500BF206850E8050F216831
:1014C00020F0400041E80502002AF5D1E06B70B140
:1014D00041F6FD21C0F600014163FEF7EBFF002855
:1014E0003FF426AFE06B416B884702B0B0BD2046A9
:1014F000FFF7E6FE02B0B0BD2046FFF7E1FE002098
:10150000606402B0B0BD0000002804BF0120704735
:1015100010B5044690F8410028B9002084F8400036
:10152000204600F021F8242084F841002068C1689A
:1015300021F40051C160204600F080FB2068016961
:1015400021F490410161416921F02A014161C168A2
:1015500041F40051C16000202021606484F84110F2
:1015600084F84210606310BDB0B586B0006844F2E4
:10157000004140F60004C4F20001C4F201048842B4
:101580004FF00001CDE90411CDE902112BD043F653
:101590000001C4F20101884257D141F21800C4F29F
:1015A0000200016841F480410160016801F480415A
:1015B00001910199016841F004010160006802A9EC
:1015C00000F00400019001984FF400700290022096
:1015D0000390032005902046FEF7D4FF4FF480606F
:1015E0000290252522E041F21800C4F20200416871
:1015F00041F400314160416801F4003101910199E9
:10160000016841F004010160006802A900F00400D3
:10161000019001980420029002200390032005907D
:101620002046FEF7AFFF0820262502900020CDE9D6
:10163000030002A92046FEF7A5FF2846002100224C
:10164000FFF71AF92846FFF713F906B0B0BD0000FE
:101650007047000070470000FEE70000B0B584B09E
:1016600040F2100042F200410024C2F20000C4F235
:1016700001014FF4602201250394CDE90144047374
:101680000475C261C0E9001484600561FEF732FE92
:10169000002818BFFEF7A0FD40F21000C2F20000C3
:1016A00001A9CDE901550394FEF79CFD002818BF60
:1016B000FEF792FD04B0B0BD70B586B0002541F2D2
:1016C0001800CDE90455CDE90255C4F202000168C5
:1016D00040F6004441F0100101600168C4F20104C9
:1016E00001F01001019101990168002241F02001EF
:1016F000016001684FF4E07601F020010191019949
:10170000016841F004010160016801F004010191E8
:101710000199016841F00801016000684FF4E0712F
:1017200000F00800019001982046FFF729F8029682
:101730000126CDE90365022002AD05902046294629
:10174000FEF720FF4FF4007002900020C1F221004C
:10175000CDE9030620462946FEF714FF1720002195
:101760000022FFF789F81720FFF782F806B070BD56
:1017700010B582B040F2400042F600010024C2F2EF
:101780000000C4F200018DF80640ADF8044000945A
:101790004FF0FF324FF4807380E80E00FFF744FCF7
:1017A000002818BFFEF718FD40F24000C2F200000A
:1017B00001A90122ADF804408DF80640FFF70AFDAB
:1017C000002818BFFEF708FD40F20110C2F20130F8
:1017D000009040F24000C2F2000069460122FFF78B
:1017E00099FC002818BFFEF7F7FC02B010BD0000FE
:1017F00080B540F2540043F60001C2F20000C4F28A
:10180000010100234FF00C0C4FF4E13280E80E0090
:10181000C0E90333C0E905C3C361FFF775FE0028C3
:1018200018BFFEF7D9FC80BD80B540F29C0044F2A1
:101830000041C2F20000C4F2000100234FF00C0C82
:101840004FF4165280E80E00C0E90333C0E905C327
:10185000C361FFF759FE002818BFFEF7BDFC80BD2D
:10186000FEE70000FEE7000000F0070080F007033D
:10187000042B28BF04234FF0FF3C03380CFA03F37A
:1018800038BF0020994381400CFA00F022EA0000A2
:10189000084370477047000081B040F20000C2F278
:1018A0000000006844F6D351C1F26201A0FB0101BF
:1018B000480A009000BF0098411E00280091F9D10D
:1018C00001B07047010901EB810100F00F0000EB4E
:1018D0004100C0B270470000B0B50446FEF756FFA5
:1018E000054600BF20684168890607D4FEF74EFF11
:1018F000401BB0F57A7FF5D90320B0BD416841F0B7
:10190000100141600020B0BDB0B5044600684168D8
:1019100021F010014160FEF739FF0546206840685C
:10192000800607D4FEF732FF401BB0F57A7FF5D969
:101930000320B0BD0020B0BD80B540F24000C2F22F
:101940000000FFF74FFB80BD0068016A406A80B26B
:1019500040EA01407047000002689169D2F81CC05B
:10196000936983EA010000041CBFD2F81CC0194629
:101970001FFA8CF040EA01407047000080B5172341
:1019800001FB03FC48F63963C3F6E303ACFB033CFD
:101990004FF4FA63032938BF40F2CF7303EB000E14
:1019A00048F21F53C5F2EB13AEFB033140F2D27382
:1019B00038BF40F2D473184400EB9E00A0EB5110E6
:1019C00000EBD110104444F6251100EB5C00C2F28C
:1019D0009241A0FB0112811A02EB51018908A1EB8F
:1019E000C101084480BD0000B0B50D460446FFF7B4
:1019F00073FF00281CBF0120B0BD2068290C0162C4
:101A0000A9B241622046FFF77FFF002818BF0120DE
:101A1000B0BD0000B0B50D460446FFF75DFF0028DD
:101A20001CBF0120B0BD2068290C8161A9B2C16131
:101A30002046FFF769FF002818BF0120B0BD000055
:101A400070470000B0B501380024B4EB106F1CBF24
:101A50000120B0BD4EF21005CEF2000568604FF0D7
:101A6000FF300F2100F086F90720AC602860204687
:101A7000B0BD000080B5FEF78FFE80BD70B594B09C
:101A80000AAC20462821FEF754FB092000250A90C5
:101A90004FF480300226CDE90B050121CDE911601C
:101AA00020460995CDE90755CDE90555CDE9035502
:101AB000CDE901550E9110911395FFF709F9C0B9C1
:101AC0000F20CDE9050605A80021CDE907550995A8
:101AD000FEF7EAFF68B9032001904FF4007002900E
:101AE0000020039001A8FEF75BFF002804BF14B09C
:101AF00070BDFEF771FB00007047000080B5406AC2
:101B00000021C185C184FFF7DBFB80BD016851E87E
:101B1000031F026821F4907142E80313002BF5D1F2
:101B2000016851E8051F026821F0010142E8051330
:101B3000002BF5D1016B01290AD100BF016851E8E2
:101B4000031F026821F0100142E80313002BF5D1B6
:101B5000202180F8421000210163704780B50168A0
:101B6000CA6822F04002CA60202180F84110FFF7C5
:101B700071FD80BD80B582B090F8421022291ED13F
:101B80008268B2F5805F02D1016900294AD0816A7A
:101B9000B2F5805F07D00AB9026922B102685268C3
:101BA00002F07F0201E0026852680A700121826A35
:101BB00011448162C18D01390A04C18501D002B08E
:101BC00080BD0168CA6822F02002CA60CA6822F497
:101BD0008072CA604A6922F001024A61202180F8BD
:101BE000421000214163026B012A23D1016300BF2F
:101BF000016851E8031F026821F0100142E8031355
:101C0000002BF5D101680A68D20606D500220192A0
:101C10000A680192496801910199818DFFF74EFB95
:101C200002B080BD0168826A49686FF35F2111804C
:101C30000221BCE7FFF70CFD02B080BD10B50446E1
:101C40000068D4E902C22369016921F440511143BB
:101C50000161616943EA0C021143C26841F20C63FD
:101C60009A431143C1604169A26921F44071114353
:101C700043F60002C4F201029042416102D0FEF735
:101C8000D3FF01E0FEF7E2FF6268192148439100AB
:101C9000B0FBF1F048F21F51C5F2EB11A0FB01239C
:101CA0005A096FF0630302FB0300322303EB0010B9
:101CB000A0FB0101F02303EA5113206803EB021299
:101CC000C1F343111144816010BD000090F8411030
:101CD000212923D18168B1F5805F01D1016931B13A
:101CE000016A02684B1C03620978516007E0016ACF
:101CF000036831F8022B6FF35F225A600162C18CD6
:101D000001390A04C18418BF70470068C16821F016
:101D10008001C160C16841F04001C16070470000AE
:101D200080B540F25400C2F20000FFF7CBFA80BD4C
:101D300080B540F29C00C2F20000FFF7C3FA80BDFC
:101D4000FEE70000002848BF704700F01F01012295
:101D500002FA01F14EF200124009CEF2000242F8FE
:101D6000201070474EF60C50CEF200000068C0F311
:101D7000022070474EF6145300F00F02CEF200031B
:101D800009011A4400F16043B0F1FF3FC8BF03F5F9
:101D900064421170704700004EF60C51CEF2000103
:101DA0000A684FF6FF031A4060F30A2242F080608F
:101DB00040F0FD7008607047FEF7FCFCFFF75EFE28
:101DC000FFF77AFCFFF74AFCFFF712FDFFF72CFD47
:101DD000FFF7CEFCFEE702E008C8121F08C1002A88
:101DE000FAD170477047002001E001C1121F002A9C
:101DF000FBD1704700000000000000000102030456
:101E0000060708090000000001020304301E000854
:101E10000000002010000000D61D0008401E000831
:101E200010000020D8040000E61D0008000000009B
:101E30000024F40001000000100000000000000079
:04000005080000ED02
:00000001FF
